:020000040800F2
:10000000002800204D3B0008291300082B1300088E
:100010002D1300082F130008311300080000000002
:100020000000000000000000000000003313000882
:1000300035130008000000003713000839130008CA
:10004000953B0008953B0008953B0008953B000850
:10005000953B0008953B0008953B0008953B000840
:10006000953B0008953B0008953B0008953B000830
:10007000953B0008953B0008953B0008953B000820
:10008000953B0008953B0008953B0008953B000810
:10009000953B0008953B0008953B0008953B000800
:1000A000953B0008953B0008953B0008953B0008F0
:1000B000953B0008953B000800000000953B0008B8
:1000C000953B00080000000000000000953B000880
:1000D0000000000041130008511300080000000058
:1000E000953B0008953B0008953B00080000000088
:1000F0000000000000000000000000000000000000
:0C01000000000000000000005FF808F1A3
:10011000034613F8012B002AFBD1181A0138704747
:1001200081F0004102E000BF83F0004330B54FEAA8
:1001300041044FEA430594EA050F08BF90EA020F15
:100140001FBF54EA000C55EA020C7FEA645C7FEAA8
:10015000655C00F0E2804FEA5454D4EB5555B8BFCB
:100160006D420CDD2C4480EA020281EA030382EA3C
:10017000000083EA010180EA020281EA0303362DCE
:1001800088BF30BD11F0004F4FEA01314FF4801CA1
:100190004CEA113102D0404261EB410113F0004FB3
:1001A0004FEA03334CEA133302D0524263EB43036A
:1001B00094EA050F00F0A780A4F10104D5F1200E08
:1001C0000DDB02FA0EFC22FA05F2801841F1000163
:1001D00003FA0EF2801843FA05F359410EE0A5F137
:1001E00020050EF1200E012A03FA0EFC28BF4CF068
:1001F000020C43FA05F3C01851EBE37101F000451E
:1002000007D54FF0000EDCF1000C7EEB00006EEB2A
:100210000101B1F5801F1BD3B1F5001F0CD34908B4
:100220005FEA30004FEA3C0C04F101044FEA44520B
:1002300012F5800F80F09A80BCF1004F08BF5FEA92
:10024000500C50F1000041EB045141EA050130BD72
:100250005FEA4C0C404141EB0101013C28BFB1F584
:10026000801FE9D291F0000F04BF01460020B1FACF
:1002700081F308BF2033A3F10B03B3F120020CDAA2
:100280000C3208DD02F1140CC2F10C0201FA0CF080
:1002900021FA02F10CE002F11402D8BFC2F1200CE5
:1002A00001FA02F120FA0CFCDCBF41EA0C0190409B
:1002B000E41AA2BF01EB0451294330BD6FEA0404E4
:1002C0001F3C1CDA0C340EDC04F11404C4F12002CF
:1002D00020FA04F001FA02F340EA030021FA04F3E1
:1002E00045EA030130BDC4F10C04C4F1200220FA38
:1002F00002F001FA04F340EA0300294630BD21FA76
:1003000004F0294630BD94F0000F83F4801306BF3B
:1003100081F480110134013D4EE77FEA645C18BF2F
:100320007FEA655C29D094EA050F08BF90EA020FC6
:1003300005D054EA000C04BF1946104630BD91EABE
:10034000030F1EBF0021002030BD5FEA545C05D1C1
:100350004000494128BF41F0004130BD14F5800400
:100360003CBF01F5801130BD01F0004545F0FE4174
:1003700041F470014FF0000030BD7FEA645C1ABFA9
:10038000194610467FEA655C1CBF0B46024650EAE0
:10039000013406BF52EA033591EA030F41F400210C
:1003A00030BD00BF90F0000F04BF0021704730B592
:1003B0004FF4806404F132044FF000054FF0000167
:1003C00050E700BF90F0000F04BF0021704730B528
:1003D0004FF4806404F1320410F0004548BF4042FD
:1003E0004FF000013EE700BF42004FEAE2014FEA52
:1003F00031014FEA02701FBF12F07F4393F07F4F2D
:1004000081F06051704732F07F4208BF704793F02F
:100410007F4F04BF41F40021704730B54FF4607442
:1004200001F0004521F000411CE700BF50EA010245
:1004300008BF704730B54FF000050AE050EA0102EE
:1004400008BF704730B511F0004502D5404261EB5E
:1004500041014FF4806404F132045FEA915C3FF49F
:10046000D8AE4FF003025FEADC0C18BF03325FEA3C
:10047000DC0C18BF033202EBDC02C2F1200300FAED
:1004800003FC20FA02F001FA03FE40EA0E0021FA12
:1004900002F11444BDE600BF70B54FF0FF0C4CF400
:1004A000E06C1CEA11541DBF1CEA135594EA0C0FB2
:1004B00095EA0C0F00F0DEF82C4481EA030621EAED
:1004C0004C5123EA4C5350EA013518BF52EA033528
:1004D00041F4801143F4801338D0A0FB02CE4FF0DA
:1004E0000005E1FB02E506F00042E0FB03E54FF00A
:1004F0000006E1FB03569CF0000F18BF4EF0010E02
:10050000A4F1FF04B6F5007F64F5407404D25FEAFD
:100510004E0E6D4146EB060642EAC62141EA5551B0
:100520004FEAC52040EA5E504FEACE2EB4F1FD0CF2
:1005300088BFBCF5E06F1ED8BEF1004F08BF5FEA70
:10054000500E50F1000041EB045170BD06F0004622
:1005500046EA010140EA020081EA0301B4EB5C04CF
:10056000C2BFD4EB0C0541EA045170BD41F48011C7
:100570004FF0000E013C00F3AB8014F1360FDEBFEC
:10058000002001F0004170BDC4F10004203C35DAC8
:100590000C341BDC04F11404C4F1200500FA05F34B
:1005A00020FA04F001FA05F240EA020001F00042EC
:1005B00021F0004110EBD37021FA04F642EB060162
:1005C0005EEA430E08BF20EAD37070BDC4F10C048C
:1005D000C4F1200500FA04F320FA05F001FA04F250
:1005E00040EA020001F0004110EBD37041F100013C
:1005F0005EEA430E08BF20EAD37070BDC4F1200547
:1006000000FA05F24EEA020E20FA04F301FA05F2AE
:1006100043EA020321FA04F001F0004121FA04F256
:1006200020EA020000EBD3705EEA430E08BF20EA26
:10063000D37070BD94F0000F0FD101F00046400060
:1006400041EB010111F4801F08BF013CF7D041EAE2
:10065000060195F0000F18BF704703F000465200E6
:1006600043EB030313F4801F08BF013DF7D043EAB7
:100670000603704794EA0C0F0CEA135518BF95EA6D
:100680000C0F0CD050EA410618BF52EA4306D1D1F4
:1006900081EA030101F000414FF0000070BD50EA13
:1006A000410606BF1046194652EA430619D094EA9D
:1006B0000C0F02D150EA013613D195EA0C0F05D187
:1006C00052EA03361CBF104619460AD181EA0301DB
:1006D00001F0004141F0FE4141F470014FF0000093
:1006E00070BD41F0FE4141F4780170BD70B54FF02E
:1006F000FF0C4CF4E06C1CEA11541DBF1CEA1355AE
:1007000094EA0C0F95EA0C0F00F0A7F8A4EB05048F
:1007100081EA030E52EA03354FEA013100F0888086
:100720004FEA03334FF0805545EA131343EA12634F
:100730004FEA022245EA111545EA10654FEA002604
:100740000EF000419D4208BF964244F1FD0404F5BD
:10075000407402D25B084FEA3202B61A65EB030519
:100760005B084FEA32024FF480104FF4002CB6EBD6
:10077000020E75EB030E22BFB61A754640EA0C0056
:100780005B084FEA3202B6EB020E75EB030E22BF96
:10079000B61A754640EA5C005B084FEA3202B6EBD7
:1007A000020E75EB030E22BFB61A754640EA9C0096
:1007B0005B084FEA3202B6EB020E75EB030E22BF66
:1007C000B61A754640EADC0055EA060E18D04FEA24
:1007D000051545EA16754FEA06164FEAC30343EAC4
:1007E00052734FEAC2025FEA1C1CC0D111F4801F91
:1007F0000BD141EA00014FF000004FF0004CB6E78A
:1008000011F4801F04BF01430020B4F1FD0C88BF28
:10081000BCF5E06F3FF6AFAEB5EB030C04BFB6EB33
:10082000020C5FEA500C50F1000041EB045170BD26
:100830000EF0004E4EEA113114EB5C04C2BFD4EB53
:100840000C0541EA045170BD41F480114FF0000ED7
:10085000013C90E645EA060E8DE60CEA135594EA53
:100860000C0F08BF95EA0C0F3FF43BAF94EA0C0F56
:100870000AD150EA01347FF434AF95EA0C0F7FF4CB
:1008800025AF104619462CE795EA0C0F06D152EA1F
:1008900003353FF4FDAE1046194622E750EA410603
:1008A00018BF52EA43067FF4C5AE50EA41047FF414
:1008B0000DAF52EA43057FF4EBAE12E74FF0FF3C79
:1008C00006E000BF4FF0010C02E000BF4FF0010C4A
:1008D0004DF804CD4FEA410C7FEA6C5C4FEA430CC3
:1008E00018BF7FEA6C5C1BD001B050EA410C0CBF12
:1008F00052EA430C91EA030F02BF90EA020F002074
:10090000704710F1000F91EA030F58BF994208BFDA
:1009100090422CBFD8176FEAE37040F00100704797
:100920004FEA410C7FEA6C5C02D150EA013C07D1EE
:100930004FEA430C7FEA6C5CD6D152EA033CD3D039
:100940005DF8040B704700BF8446104662468C4633
:100950001946634600E000BF01B5FFF7B7FF002866
:1009600048BF10F1000F01BD4DF808EDFFF7F4FF8F
:100970000CBF012000205DF808FB00BF4DF808ED1A
:10098000FFF7EAFF34BF012000205DF808FB00BF3D
:100990004DF808EDFFF7E0FF94BF012000205DF85F
:1009A00008FB00BF4DF808EDFFF7CEFF94BF012014
:1009B00000205DF808FB00BF4DF808EDFFF7C4FF0D
:1009C00034BF012000205DF808FB00BF4FEA410C56
:1009D0007FEA6C5C02D150EA013C0AD14FEA430C39
:1009E0007FEA6C5C02D152EA033C02D14FF0000076
:1009F00070474FF0010070474FEA410212F50012B4
:100A000015D211D56FF47873B3EB625212D94FEA55
:100A1000C12343F0004343EA505311F0004F23FA3F
:100A200002F018BF404270474FF00000704750EA94
:100A3000013005D111F0004008BF6FF00040704751
:100A40004FF00000704700BF80F0004002E000BFA0
:100A500081F0004142001FBF5FEA410392EA030FA9
:100A60007FEA226C7FEA236C6AD04FEA1262D2EBF3
:100A70001363C1BFD218414048404140B8BF5B42F8
:100A8000192B88BF704710F0004F40F4000020F091
:100A90007F4018BF404211F0004F41F4000121F0A7
:100AA0007F4118BF494292EA030F3FD0A2F10102F1
:100AB00041FA03FC10EB0C00C3F1200301FA03F12F
:100AC00000F0004302D5494260EB4000B0F5000F52
:100AD00013D3B0F1807F06D340084FEA310102F111
:100AE0000102FE2A51D2B1F1004F40EBC25008BFC3
:100AF00020F0010040EA03007047490040EB00008D
:100B0000013A28BFB0F5000FEDD2B0FA80FCACF18D
:100B1000080CB2EB0C0200FA0CF0AABF00EBC250BA
:100B200052421843BCBFD0401843704792F0000FA8
:100B300081F4000106BF80F400000132013BB5E7FB
:100B40004FEA41037FEA226C18BF7FEA236C21D071
:100B500092EA030F04D092F0000F08BF08467047D6
:100B600090EA010F1CBF0020704712F07F4F04D1A4
:100B7000400028BF40F00040704712F100723CBFB7
:100B800000F50000704700F0004343F0FE4040F4E1
:100B9000000070477FEA226216BF08467FEA23639F
:100BA0000146420206BF5FEA412390EA010F40F48A
:100BB000800070474FF0000304E000BF10F00043D6
:100BC00048BF40425FEA000C08BF704743F09643BD
:100BD00001464FF000001CE050EA010208BF7047D8
:100BE0004FF000030AE000BF50EA010208BF70475F
:100BF00011F0004302D5404261EB41015FEA010C74
:100C000002BF84460146002043F0B64308BFA3F16B
:100C10008053A3F50003BCFA8CF2083AA3EBC2534D
:100C200010DB01FA02FC634400FA02FCC2F120026C
:100C3000BCF1004F20FA02F243EB020008BF20F0A3
:100C40000100704702F1200201FA02FCC2F1200209
:100C500050EA4C0021FA02F243EB020008BF20EAFE
:100C6000DC7070474FF0FF0C1CEAD0521EBF1CEA2C
:100C7000D15392EA0C0F93EA0C0F6FD01A4480EA1A
:100C8000010C400218BF5FEA41211ED04FF0006303
:100C900043EA501043EA5111A0FB01310CF000402F
:100CA000B1F5000F3EBF490041EAD3715B0040EA55
:100CB000010062F17F02FD2A1DD8B3F1004F40EB25
:100CC000C25008BF20F00100704790F0000F0CF0F8
:100CD000004C08BF49024CEA502040EA51207F3ABC
:100CE000C2BFD2F1FF0340EAC250704740F4000097
:100CF0004FF00003013A5DDC12F1190FDCBF00F088
:100D000000407047C2F10002410021FA02F1C2F135
:100D1000200200FA02FC5FEA310040F1000053EAD1
:100D20004C0308BF20EADC70704792F0000F00F01F
:100D3000004C02BF400010F4000F013AF9D040EA25
:100D40000C0093F0000F01F0004C02BF490011F4B9
:100D5000000F013BF9D041EA0C018FE70CEAD153B7
:100D600092EA0C0F18BF93EA0C0F0AD030F0004C37
:100D700018BF31F0004CD8D180EA010000F00040EB
:100D8000704790F0000F17BF90F0004F084691F0A9
:100D9000000F91F0004F14D092EA0C0F01D14202E3
:100DA0000FD193EA0C0F03D14B0218BF084608D1AC
:100DB00080EA010000F0004040F0FE4040F40000F6
:100DC000704740F0FE4040F4400070474FF0FF0C89
:100DD0001CEAD0521EBF1CEAD15392EA0C0F93EAD0
:100DE0000C0F69D0A2EB030280EA010C49024FEA22
:100DF000402037D04FF0805343EA111143EA1013DB
:100E00000CF000408B4238BF5B0042F17D024FF492
:100E1000000C8B4224BF5B1A40EA0C00B3EB510F6D
:100E200024BFA3EB510340EA5C00B3EB910F24BF56
:100E3000A3EB910340EA9C00B3EBD10F24BFA3EBDB
:100E4000D10340EADC001B0118BF5FEA1C1CE0D1A3
:100E5000FD2A3FF650AF8B4240EBC25008BF20F056
:100E6000010070470CF0004C4CEA50207F32C2BFAA
:100E7000D2F1FF0340EAC250704740F400004FF047
:100E80000003013A37E792F0000F00F0004C02BF78
:100E9000400010F4000F013AF9D040EA0C0093F042
:100EA000000F01F0004C02BF490011F4000F013B9C
:100EB000F9D041EA0C0195E70CEAD15392EA0C0F04
:100EC00008D142027FF47DAF93EA0C0F7FF470AF3C
:100ED000084676E793EA0C0F04D14B023FF44CAF7F
:100EE00008466EE730F0004C18BF31F0004CCAD114
:100EF00030F000427FF45CAF31F000437FF43CAF50
:100F00005FE700BF10B5054C237833B9044B13B12C
:100F10000448AFF300800123237010BDD4010020EA
:100F200000000000F469000808B5034B1BB1034939
:100F30000348AFF3008008BD00000000D801002086
:100F4000F469000830B589B000240494059406942F
:100F500007941D4B9A6942F010029A619A6902F057
:100F600010020092009A9A6942F020029A619A69EE
:100F700002F020020192019A9A6942F004029A61F9
:100F80009A6902F004020292029A9A6942F00802F7
:100F90009A619B6903F008030393039B0B4D0122A5
:100FA0004FF40051284601F02BF84FF400530493FE
:100FB0000123059306940323079304A9284600F010
:100FC00015FF09B030BD00BF001002400010014005
:100FD00072B6FEE700B585B0002301930293039338
:100FE0000F48104A02608360037303754FF4602258
:100FF000C26143600123036101F0BEF960B90023BF
:10100000019301220292039301A9054801F0E8F837
:1010100020B905B05DF804FBFFF7DAFFFFF7D8FF52
:10102000FC0200200024014008B50A480A4B036076
:101030000A4B436000238360C3604FF48042026127
:1010400043618361C361036201F078FC00B908BDAC
:10105000FFF7BEFF8002002000540040A086010080
:1010600010B50E480E4B03604FF4E133436000238C
:101070008360C36003610C2242618361C36102F03B
:101080008DF848B9054C204600F028FA01220549A0
:10109000204602F0FAFA10BDFFF79AFF380200204E
:1010A000003801403103002008B50A480A4B0360AC
:1010B0004FF4E133436000238360C36003610C227B
:1010C00042618361C36102F069F800B908BDFFF7AE
:1010D0007FFF00BFF00100200044004008B50B482E
:1010E0000B4B03601023436000238360C3600361E4
:1010F0004361037643768376C3760377437702F0C2
:10110000D7FA00B908BDFFF763FF00BFD402002083
:101110000064004000B595B0282200210DEB0200CC
:1011200003F0D5FA002305930693079308930993D8
:10113000019302930393049301220A924FF48033A4
:101140000B930E920222119212934FF4E013139319
:101150000AA800F0B1FAC8B90F230593022106913D
:10116000002307934FF480620892099305A800F0CA
:10117000D5FC68B9022301934FF40043039301A8FF
:1011800000F0A8FD30B915B05DF804FBFFF720FFB3
:10119000FFF71EFFFFF71CFF30B5B9B000F03EFAB5
:1011A000FFF7B8FFFFF7CEFEFFF714FFFFF73CFF96
:1011B000FFF756FFFFF778FFFFF790FF02F012FCF2
:1011C0004D494E4802F01EFC40F6C41000F04AFAA9
:1011D00002F044FC4FF4FA7000F044FA484802F080
:1011E00059FB00284CD02BAC464D0FCD0FC40FCD72
:1011F0000FC42B6824F8023B1B0C23702BA8FEF7AE
:1012000087FF4FF47A7382B22BA93F4801F0F6FFB3
:1012100036E00398FFF7E8F804460D460498FFF718
:10122000E3F8CDE9000122462B4638492BA803F00C
:10123000EBF9C82000F016FA0DF10A0202A93048B5
:1012400002F054FB00283DD1BDF80A30BDF808205B
:101250002F491EA803F0D8F91EAB2BAA2D4905A8CB
:1012600003F0D2F905A8FEF753FF4FF47A7382B268
:1012700005A9254801F0C2FF41F2883000F0F2F9DB
:1012800004AA03A91E4802F0B9FA0028C1D0012817
:101290000CD00DF1AC0C204C0FCCACE80F000FCCF7
:1012A000ACE80F002368CCF80030C2E72BAC1B4D34
:1012B0000FCD0FC40FCD0FC495E8030044F8040B05
:1012C0002180B6E701280BD01EAC154D0FCD0FC401
:1012D0000FCD0FC42B6824F8023B1B0C2370BBE717
:1012E0001EAC104D0FCD0FC40FCD0FC495E80300F9
:1012F00044F8040B2170AFE7146A0008246A000860
:1013000080020020306A0008F0010020546A0008C2
:10131000C86A0008306B0008A46A00087C6A0008EC
:101320000C6B0008E46A0008FEE7FEE7FEE7FEE754
:10133000FEE770477047704708B500F081F908BDB7
:1013400008B5024802F044F808BD00BF380200208A
:1013500008B5024802F03CF808BD00BFF0010020CB
:1013600082B00E4B9A6942F001029A619A6902F0CA
:1013700001020092009ADA6942F08052DA61DB6978
:1013800003F080530193019B054A536823F0E06307
:1013900043F00073536002B0704700BF001002407A
:1013A0000000014000B587B000230293039304932B
:1013B00005930268114B9A4202D007B05DF804FB16
:1013C00003F56C439A6942F400729A619A6902F4D7
:1013D00000720092009A9A6942F004029A619B6935
:1013E00003F004030193019B01230293032303935E
:1013F00002A9034800F0FAFCDFE700BF0024014027
:101400000008014010B586B00023029303930493B3
:1014100005930268164B9A4201D006B010BD03F541
:10142000D633DA6942F00072DA61DA6902F00072EA
:101430000092009A9A6942F004029A619B6903F053
:1014400004030193019B4FF400630293094C02A92A
:10145000204600F0CBFC4FF4805302930223039309
:101460000323059302A9204600F0C0FCD5E700BF86
:10147000006400400008014010B586B000230293CC
:101480000393049305930268114B9A4201D006B06E
:1014900010BD104CA36943F00803A361A36903F0D6
:1014A00008030093009BC02302931223039303239A
:1014B000059302A9084800F099FCE36943F400137E
:1014C000E361E36903F400130193019BDFE700BFCD
:1014D0000054004000100240000C014030B589B0BB
:1014E000002304930593069307930368344A9342B9
:1014F00004D0344A934233D009B030BD324B9A699C
:1015000042F480429A619A6902F480420092009A01
:101510009A6942F004029A619B6903F00403019303
:10152000019B4FF400730493022305930323079355
:10153000264D04A9284600F059FC4FF4806304931B
:1015400000240594069404A9284600F04FFC224686
:101550002146252000F010FE252000F01DFECBE7DF
:10156000194BDA6942F40032DA61DA6902F40032C6
:101570000292029A9A6942F004029A619B6903F00E
:1015800004030393039B042304930223059303237F
:1015900007930E4D04A9284600F028FC0823049365
:1015A00000240594069404A9284600F01FFC224656
:1015B0002146262000F0E0FD262000F0EDFD9BE70F
:1015C0000038014000440040001002400008014083
:1015D00010B504460E4B1A784FF47A73B3FBF2F34E
:1015E0000C4A1068B0FBF3F000F0E4FD68B90F2C72
:1015F00001D901200AE0002221464FF0FF3000F01F
:10160000BBFD054B1C60002000E0012010BD00BFA9
:1016100000000020080000200400002008B5074A50
:10162000136843F010031360032000F093FD0F20B4
:10163000FFF7CEFFFFF794FE002008BD0020024018
:10164000034A1168034B1B780B441360704700BFBB
:101650002C03002000000020014B1868704700BFD9
:101660002C03002038B50446FFF7F6FF0546B4F119
:10167000FF3F02D0044B1B781C44FFF7EDFF401BDB
:10168000A042FAD338BD00BF0000002082B0084B52
:101690001B68084AA2FB03235B0A00FB03F30193C8
:1016A00000BF019B5A1E0192002BF9D102B0704776
:1016B00008000020D34D6210002800F0F18170B5C1
:1016C00082B00446036813F0010F2CD0994B5B687D
:1016D00003F00C03042B1DD0964B5B6803F00C0346
:1016E000082B12D06368B3F5803F41D0002B55D151
:1016F00003F1804303F504331A6822F480321A6040
:101700001A6822F480221A6037E08A4B5B6813F46F
:10171000803FE7D0874B1B6813F4003F03D063681A
:10172000002B00F0BF81236813F0020F75D0814BAE
:101730005B6813F00C0F5FD07E4B5B6803F00C030B
:10174000082B54D02369002B00F08A807A4B0122A9
:101750001A60FFF781FF0546764B1B6813F0020FF6
:1017600075D1FFF779FF401B0228F5D903209EE1D0
:10177000704A136843F480331360636843B3FFF720
:101780006BFF05466B4B1B6813F4003FCBD1FFF793
:1017900063FF401B6428F5D9032088E1B3F5A02F2F
:1017A00009D0644B1A6822F480321A601A6822F455
:1017B00080221A60E1E703F18043A3F53C331A6805
:1017C00042F480221A601A6842F480321A60D4E728
:1017D000FFF742FF0546574B1B6813F4003FA2D0AA
:1017E000FFF73AFF401B6428F5D903205FE1514B16
:1017F0005B6813F4803FA5D14E4B1B6813F0020FBA
:1018000003D02369012B40F04F814A4A136823F02B
:10181000F803616943EAC1031360236813F0080FFA
:1018200033D0A369002B5CD0434B0122C3F8802442
:10183000FFF712FF05463F4B5B6A13F0020F21D101
:10184000FFF70AFF401B0228F5D903202FE1394A90
:10185000136823F0F803616943EAC1031360DCE70E
:10186000354B00221A60FFF7F7FE0546314B1B6827
:1018700013F0020FD1D0FFF7EFFE401B0228F5D97D
:10188000032014E10120FFF701FF236813F0040F88
:1018900000F09680274BDB6913F0805F34D1254B35
:1018A000DA6942F08052DA61DB6903F08053019318
:1018B000019B0125214B1B6813F4807F26D0E36830
:1018C000012B3DD0002B53D103F1804303F50433AA
:1018D0001A6A22F001021A621A6A22F004021A62DB
:1018E00033E0154B0022C3F88024FFF7B5FE054610
:1018F000104B5B6A13F0020FC7D0FFF7ADFE401B21
:101900000228F5D90320D2E00025D3E70B4A13685B
:1019100043F480731360FFF79FFE0646074B1B6876
:1019200013F4807FCBD1FFF797FE801B6428F5D995
:101930000320BCE000100240000042420070004062
:101940005F4A136A43F001031362E36833B3FFF79E
:1019500083FE06465A4B1B6A13F0020F2FD1FFF786
:101960007BFE801B41F288339842F3D903209EE02E
:10197000052B09D0524B1A6A22F001021A621A6A28
:1019800022F004021A62E0E74D4B1A6A42F00402A8
:101990001A621A6A42F001021A62D6E7FFF75CFE89
:1019A0000646474B1B6A13F0020F08D0FFF754FEA0
:1019B000801B41F288339842F3D9032077E0E5B9E0
:1019C000E369002B72D03E4A526802F00C02082AEA
:1019D00056D0022B17D03B4B00221A66FFF73CFE75
:1019E0000446374B1B6813F0007F47D0FFF734FEE7
:1019F000001B0228F5D9032059E0314AD36923F0AE
:101A00008053D361DCE72F4B00221A66FFF724FED8
:101A100005462B4B1B6813F0007F06D0FFF71CFE1A
:101A2000401B0228F5D9032041E0236AB3F5803F2B
:101A30001AD023494B6823F47413226A606A024364
:101A400013434B601F4B01221A66FFF705FE044645
:101A50001B4B1B6813F0007F0ED1FFF7FDFD001B31
:101A60000228F5D9032022E0154A536823F40033F5
:101A7000A1680B435360DCE7002018E0002016E06B
:101A8000012B16D00E4B5B6803F48031226A914221
:101A900011D103F47013626A93420ED1002006E064
:101AA00001207047012002E0012000E0002002B088
:101AB00070BD0120FBE70120F9E70120F7E700BF37
:101AC00000100240000042420F4B5B6803F00C0222
:101AD000082A01D00D487047C3F383420C49885C43
:101AE00013F4803F0BD0084B5B68C3F34043094AB3
:101AF000D35C064A02FB00F0B0FBF3F07047064BE4
:101B000003FB00F0704700BF0010024000127A0093
:101B10003C6B0008386B000800093D00002800F00D
:101B2000A08070B50D460446524B1B6803F00703B6
:101B30008B420BD24F4A136823F007030B43136009
:101B4000136803F007038B4240F08D80236813F085
:101B5000020F17D013F0040F04D0474A536843F420
:101B6000E0635360236813F0080F04D0424A5368BF
:101B700043F460535360404A536823F0F003A16874
:101B80000B435360236813F0010F31D06368012BBE
:101B900020D0022B25D0384A126812F0020F64D0F0
:101BA00035494A6822F0030213434B60FFF754FDA6
:101BB0000646314B5B6803F00C036268B3EB820F9F
:101BC00016D0FFF749FD801B41F288339842F0D9C7
:101BD000032045E0284A126812F4003FE0D10120BA
:101BE0003EE0254A126812F0007FD9D1012037E08B
:101BF000204B1B6803F00703AB420AD91D4A136848
:101C000023F007032B431360136803F00703AB4271
:101C10002DD1236813F0040F06D0174A536823F41C
:101C2000E063E1680B435360236813F0080F07D0AB
:101C3000114A536823F46053216943EAC103536096
:101C4000FFF742FF0C4B5B68C3F303130B4AD35CF3
:101C5000D8400B4B18600B4B1868FFF7B9FC0020FD
:101C600070BD012070470120FAE70120F8E701204C
:101C7000F6E700BF0020024000100240546B00084D
:101C80000800002004000020014B1868704700BFC6
:101C90000800002008B5FFF7F7FF044B5B68C3F3AB
:101CA0000223034AD35CD84008BD00BF00100240A5
:101CB0004C6B000808B5FFF7E7FF044B5B68C3F304
:101CC000C223034AD35CD84008BD00BF00100240C5
:101CD0004C6B000870B582B00446036813F0010F26
:101CE00036D03F4BDB6913F0805F49D13C4BDA695A
:101CF00042F08052DA61DB6903F080530193019B6B
:101D00000125384B1B6813F4807F3BD0344B1B6A92
:101D100013F4407313D0626802F440729A420ED0FA
:101D20002F4A136A23F440702F490126C1F84064FA
:101D30000026C1F84064106213F0010F36D1284A22
:101D4000136A23F4407361680B431362002D3ED184
:101D5000236813F0020F06D0214A536823F440434E
:101D6000A1680B435360236813F0100F34D01C4A52
:101D7000536823F48003E1680B43536000202CE098
:101D80000025BEE7174A136843F480731360FFF71A
:101D900063FC0646134B1B6813F4807FB6D1FFF734
:101DA0005BFC801B6428F5D9032016E0FFF754FC88
:101DB00006460B4B1B6A13F0020FC0D1FFF74CFC19
:101DC000801B41F288339842F3D9032005E0D369A0
:101DD00023F08053D361BBE7002002B070BD00BF89
:101DE00000100240007000400000424270B582B016
:101DF0000024A44687E07C4DAB4214D00CD8A5F556
:101E00008015AB420FD005F57025AB420BD0A5F580
:101E10008015AB4212D106E0744DAB4203D005F5FC
:101E20008035AB420AD18B68002B00F0B580012BC6
:101E300000F0AD804261082400E0CC68BEF1FF0FE5
:101E400000F2AC8006464FEA8C0233680F259540BD
:101E500023EA050304FA02F2134333604B6813F0DC
:101E6000805F4ED0624B9A6942F001029A619B6991
:101E700003F001030193019B4FEA9C02951C5D4B0B
:101E800053F825600CF00305AD000F23AB4026EAA4
:101E90000306594B984200F0888003F5806398420E
:101EA00000F0858003F5806398427CD00323AB402B
:101EB000334302324F4D45F822304B6813F4801FF4
:101EC00077D04E4A936843EA0E0393604B6813F44D
:101ED000001F74D0494AD36843EA0E03D3604B68AD
:101EE00013F4003F71D0454A536843EA0E03536030
:101EF0004B6813F4803F6ED0404A136843EA0E03E8
:101F000013600CF1010C0B6833FA0CF269D001225A
:101F100002FA0CF203EA020E32EA0303F1D14B6833
:101F2000122B3FF668AF122B88D801A555F823F085
:101F3000271E00083B1E0008831F0008951F00088D
:101F40003D1E00083D1E00083D1E00083D1E000805
:101F50003D1E00083D1E00083D1E00083D1E0008F5
:101F60003D1E00083D1E00083D1E00083D1E0008E5
:101F70003D1E00087D1F0008891F0008CC6804343E
:101F80005CE7CC68083459E7CC680C3456E702614A
:101F9000082453E7002451E704244FE7061DACF161
:101FA0000802920051E7022381E700237FE7012323
:101FB0007DE7124A936823EA0E03936086E70F4A8F
:101FC000D36823EA0E03D36089E70C4A536823EAF7
:101FD0000E0353608CE7094A136823EA0E0313606B
:101FE0008FE702B070BD00BF00002210000031106A
:101FF00000100240000001400008014000040140C0
:102000000AB101617047090401617047034690F805
:102010002120D2B2022A06D004228263002280F854
:1020200020200120704701680A6822F00E020A6031
:1020300001680A6822F001020A60026CC06B01218B
:1020400001FA02F2426083F82110002083F8200098
:102050007047000008B590F82130DBB2022B03D0A6
:1020600004238363012008BD0268136823F00E0374
:1020700013600268136823F0010313600368194AB0
:10208000934214D0143293421FD0143293421ED084
:10209000143293421ED0143293421ED01432934213
:1020A00002D04FF0807203E04FF4801200E0012272
:1020B0000D4B5A60012380F82130002380F8203036
:1020C000436B6BB198470020CDE71022F0E74FF447
:1020D0008072EDE74FF48052EAE74FF48032E7E791
:1020E0000020C0E70800024000000240002808DB92
:1020F0000901C9B200F1604000F5614080F80013A9
:10210000704700F00F000901C9B2014B1954704724
:1021100014ED00E000B500F00700C0F1070CBCF1C1
:10212000040F28BF4FF0040C031D062B0FD9C31E4C
:102130004FF0FF3E0EFA0CF021EA000199400EFA32
:1021400003FE22EA0E0241EA02005DF804FB0023CE
:10215000EEE70000074AD36823F4E0631B041B0C7E
:10216000000200F4E060034343F0BF6343F4003334
:10217000D360704700ED00E010B50446054BD86809
:10218000C0F30220FFF7C6FF01462046FFF7AEFF6F
:1021900010BD00BF00ED00E0002807DB00F01F02CB
:1021A000400901239340024A42F82030704700BFA3
:1021B00000E100E00138B0F1807F0BD24FF0E02366
:1021C0005861054AF02182F8231000209861072207
:1021D0001A6170470120704700ED00E07047000071
:1021E00030B482B00022019290F82420012A00F03D
:1021F0008F800346012280F824204A68062A2DD8C1
:102200000468606B02EB8202053A4FF01F0C0CFA77
:1022100002FC20EA0C000D6805FA02F20243626338
:102220000A68092A38D91C68E06802EB42021E3AA3
:102230004FF0070C0CFA02FC20EA0C008D6805FA3E
:1022400002F20243E2600A68103A012A34D90020FF
:10225000002283F8242002B030BC70470C2A0DD82D
:102260000568286B02EB8202233A1F24944020EA7F
:1022700004000C68944020432863D1E70568E86AAD
:1022800002EB8202413A1F24944020EA04000C68C9
:1022900094402043E862C3E71C68206902EB4202D5
:1022A0004FF0070C0CFA02FC20EA0C008D6805FACE
:1022B00002F202432261C6E71A681648824205D03C
:1022C0009A6A42F020029A620120C1E7906810F4F5
:1022D000000F1BD1906840F4000090600A68102A3B
:1022E00001D00020B4E70C4A12680C49A1FB02128D
:1022F000920C02EB82025200019202E0019A013A32
:102300000192019A002AF9D10020A1E700209FE75D
:102310000220A0E7002401400800002083DE1B43C8
:1023200038B503689A6812F0010F01D1002038BD5A
:1023300004469A6822F001029A60FFF78DF905467B
:1023400023689B6813F0010F13D0FFF785F9431B37
:10235000022BF5D923689B6813F0010FF0D0A36A14
:1023600043F01003A362E36A43F00103E362012038
:10237000DDE70020DBE7000000287BD070B50446D5
:10238000836A002B4DD02046FFF7CAFFA36A13F0E3
:10239000100369D1002867D1A26A22F4885222F082
:1023A000020242F00202A2626268E1690A43217BF2
:1023B00042EA4102A568B5F5807F02D0012D36D0F2
:1023C0001D46267D012E35D02668716821F46941AD
:1023D000294371602568AE68274931401143A960DF
:1023E000A168B1F5807F01D0012902D12369013BA9
:1023F0001B052568E96A21F470010B43EB62236831
:1024000099681E4B0B409A4225D0A36A23F0120311
:1024100043F01003A362E36A43F00103E362012087
:1024200027E0C36280F82430FEF7BCFFABE74FF42F
:102430008075C6E731B9A169013945EA413141F4F6
:102440000065C1E7A16A41F02001A162E16A41F0A3
:102450000101E162B8E70023E362A36A23F003030A
:1024600043F00103A36204E0A36A43F01003A362F4
:10247000012070BD01207047FDF7E1FFFE0E1FFF38
:1024800003685A6912F4806F01D1002070476FF41D
:1024900080625A6100230363202280F83D2080F887
:1024A0003E30026C42F00402026480F83C300120AD
:1024B00070472DE9F04106460C46174698463BE02A
:1024C000FFF7CAF8069BC01A404502D8B8F1000FC2
:1024D00032D1012D18D033689B6924EA03039BB2E3
:1024E000B3FA83F35B099F4226D100233363202292
:1024F00086F83D2086F83E30326C42F0200232648D
:1025000086F83C30012027E033685B6924EA030346
:102510009BB2B3FA83F35B09E5E733685B6924EAAE
:10252000030C1FFA8CFCBCFA8CFC4FEA5C1C674560
:1025300011D1B8F1FF3FC3D1C4F30745012DECD051
:1025400033689B6924EA030C1FFA8CFCBCFA8CFCF0
:102550004FEA5C1CEBE70020BDE8F0812DE9F84371
:1025600005460E469046994653E01A6842F40072BA
:102570001A602B686FF480625A6100232B6320225B
:1025800085F83D2085F83E302A6C42F004022A642A
:1025900085F83C3001204AE0FFF75EF8A0EB090027
:1025A000404502D8B8F1000F33D1012F17D02B6866
:1025B0009B6926EA03039BB2003B18BF012343B388
:1025C00000232B63202285F83D2085F83E302A6CBD
:1025D00042F020022A6485F83C30012027E02B6875
:1025E0005B6926EA03039BB2003B18BF0123E6E7C1
:1025F0002B689C6926EA0404A4B2003C18BF01249D
:10260000A4B12B685A6912F4806FAED1B8F1FF3FC4
:10261000C2D1C6F30747012FEAD12B685C6926EACD
:102620000404A4B2003C18BF0124E9E70020BDE87F
:10263000F8830000F0B583B004460D4616461F46E9
:10264000C36A082B0DD0012B0BD013F5803F08D0A7
:10265000036B122B0AD10268136843F48073136072
:1026600004E02268136843F48073136000973346D4
:1026700000224FF001112046FFF71BFF80B92369AC
:10268000B3F5804F16D1236805F0FE051D613B466A
:10269000324613492046FFF761FFF8B903B0F0BD99
:1026A00023681B6813F4807F02D04FF40073236407
:1026B0000320F3E7EB11226803F0060343F0F00375
:1026C00013613B46324607492046FFF747FF18B9DA
:1026D0002368EDB21D61DAE70120DFE70120DDE7C5
:1026E00002000100080001002DE9F04184B0044619
:1026F0000D4616461F46C26A01680B6843F48063A4
:102700000B60082A0DD0012A0BD012F5803F08D0AB
:10271000036B112B0AD10268136843F480731360B2
:1027200004E02268136843F4807313600097334613
:1027300000224FF001112046FFF7BBFE98B9236934
:10274000B3F5804F19D1236845F00105EDB21D6145
:102750003B4632462A492046FFF700FF00284CD16D
:1027600004B0BDE8F08123681B6813F4807F02D0B9
:102770004FF4007323640320F2E74FEAE51808F0F2
:102780000608236848F0F0021A613B4632461D49AC
:102790002046FFF7E3FE08B10120E1E72368EDB230
:1027A0001D613B46324616492046FFF7D7FE08B169
:1027B0000120D5E7002203922368596903919969A2
:1027C00003910399196841F48071196000973346A9
:1027D0004FF001112046FFF76CFE20B9226848F047
:1027E000F1031361B4E723681B6813F4807F02D000
:1027F0004FF4007323640320B2E70120B0E700BF69
:10280000020001000800010070B504460D4616469E
:1028100023685B6913F0800F21D12046FFF730FE5B
:10282000F8B9B5F1FF3FF3D0FEF716FF801BA842C1
:1028300001D8002DECD123685B6913F0800FE7D13C
:1028400000232363202284F83D2084F83E30226C4C
:1028500042F02002226484F83C30012000E0002095
:1028600070BD0120FCE770B504460D46164623688E
:102870005B6913F0040F21D12046FFF701FEF8B980
:10288000B5F1FF3FF3D0FEF7E7FE801BA84201D869
:10289000002DECD123685B6913F0040FE7D100230E
:1028A0002363202284F83D2084F83E30226C42F0DD
:1028B0002002226484F83C30012000E0002070BD3A
:1028C0000120FCE770B504460D46164614E06FF093
:1028D00010025A6100232363202284F83D2084F8EB
:1028E0003E30226C226484F83C30012025E02368CD
:1028F0005B6913F0400F10D02368586910F0400F47
:102900001AD1586910F0100FE1D1FEF7A5FE801B17
:10291000A842ECD8002DEFD1E9E700232363202261
:1029200084F83D2084F83E30226C42F0200222647C
:1029300084F83C30012000E0002070BD002800F049
:10294000CC8070B5044690F83D30002B77D024231E
:1029500084F83D302268136823F001031360226875
:10296000136843F4004313602268136823F40043A0
:102970001360FFF78FF962685A4B9A4264D85A4B3A
:1029800098428CBF00230123002B40F0A8805749B8
:10299000A1FB00318B0C25686A6822F03F0242EAF5
:1029A00091426A6021680A6A22F03F0266684D4DD2
:1029B000AE424FD8013313430B622168CA6922F437
:1029C0004F4222F0FF026568464B9D424CD8431EA1
:1029D0006D00B3FBF5F3013340F6FC70034278D091
:1029E000C3F30B031A43CA6121680B6823F0C003C9
:1029F000E269206A024313430B6021688B6823F469
:102A0000034323F0FF032269E068024313438B6012
:102A10002168CB6823F0FF036269A0690243134376
:102A2000CB602268136843F0010313600020206428
:102A3000202384F83D30206384F83E0070BD80F888
:102A40003C30FEF719FD82E7294B98428CBF0023EA
:102A5000012399E74FF4967505FB03F3254DA5FB7C
:102A600003539B090133A6E7A668BEB9431E05EBD5
:102A7000450CB3FBFCF30133C3F30B03B3FA83F34D
:102A80005B0943BBC6B9431E05EB4505B3FBF5F334
:102A90000133C3F30B0343F40043A3E7431E05EBE9
:102AA000850C0CEB8C0CB3FBFCF30133C3F30B0371
:102AB000B3FA83F35B09E4E7431E05EB850505EBF9
:102AC0008505B3FBF5F30133C3F30B0343F4404334
:102AD00088E7042386E7012384E70120704701206B
:102AE000ACE700BFA08601007F841E0083DE1B438D
:102AF000FF083D00D34D62102DE9F04385B0044638
:102B00000F46914698460C9EFEF7A6FD054694F8A2
:102B10003D00C0B2202804D00227384605B0BDE8E9
:102B2000F0830095192301224F492046FFF7C1FC8D
:102B3000002840F0928094F83C30012B00F08F8008
:102B4000012384F83C3023681A6812F0010F03D186
:102B50001A6842F001021A602268136823F40063C5
:102B60001360212384F83D30102384F83E30002385
:102B70002364C4F82490A4F82A80638D23853B4BFA
:102B8000E3622B46324639462046FFF753FD07469F
:102B9000002866D10023039323685A6903929B6936
:102BA0000393039B11E0236C042B01D00127B4E7AE
:102BB0002268136843F400731360F7E72A4631462E
:102BC0002046FFF750FE00282ED1238D002B36D053
:102BD0002A4631462046FFF717FE0028E3D1626AF5
:102BE000236812781A61606A431C6362618D89B23E
:102BF000013989B26185238D013B9BB2238522680F
:102C0000516911F0040FD9D0002BD7D0437813614C
:102C1000636A01336362638D9BB2013B9BB2638540
:102C2000238D013B2385C9E7236C042B01D00127A9
:102C300073E72268136843F400731360F7E72268B0
:102C4000136843F400731360202384F83D3000239D
:102C500084F83E3084F83C305FE702275DE70227C6
:102C60005BE7012759E700BF020010000000FFFFEB
:102C70002DE9F04389B004460F4691469846109ED0
:102C800000230793FEF7E8FC054694F83D00C0B228
:102C9000202804D00227384609B0BDE8F08300950B
:102CA0001923012280492046FFF703FC002840F049
:102CB0007A8194F83C30012B00F07781012384F86D
:102CC0003C3023681A6812F0010F03D11A6842F0F1
:102CD00001021A602268136823F400631360222340
:102CE00084F83D30102384F83E3000232364C4F878
:102CF0002490A4F82A80638D23856C4BE3622B46D5
:102D0000324639462046FFF7EFFC0746002840F0E0
:102D10004E81238D5BB9039323685A6903929A69A4
:102D20000392039A1A6842F400721A60F3E0012BCE
:102D30000FD0022B21D02268136843F48063136004
:102D40000023069323685A6906929B690693069BA3
:102D5000E1E02268136823F48063136072B60023F5
:102D6000049323685A6904929A690492049A1A682F
:102D700042F400721A6062B6CDE02268136843F430
:102D80000063136072B60023059323685A690592A5
:102D90009A690592059A1A6822F480621A6062B6EE
:102DA000B9E02A4631462046FFF78CFD002840F066
:102DB000008123681A69636A1A70636A0133636267
:102DC000238D013B2385638D9BB2013B9BB26385C1
:102DD000A1E000953346002235492046FFF769FB04
:102DE000002840F0EA802268136823F480631360AF
:102DF00072B623681A69636A1A70636A0133636280
:102E0000238D013B2385638D9BB2013B9BB2638580
:102E1000284B1B68DB08284AA2FB03231B0A03EB91
:102E20008303C3EBC30307930799013907910799FC
:102E3000002928D023685A6912F0040FF4D01A68C8
:102E400042F400721A6023681A69636A1A70636A2E
:102E500001336362238D013B2385638D9BB2013B6C
:102E60009BB2638562B623681A69636A1A70636AE3
:102E700001336362238D013B2385638D9BB2013B4C
:102E80009BB2638547E000232363202284F83D2022
:102E900084F83E30226C42F02002226462B684F84C
:102EA0003C300127F7E600BF020010000000FFFFE2
:102EB000040001000800002089B5F8142A463146B4
:102EC0002046FFF7FFFC002879D123681A69636A5E
:102ED0001A70636A01336362228D013A92B22285CD
:102EE000638D9BB2013B9BB263852368596911F0E6
:102EF000040F10D0032A48D023681A69636A1A7035
:102F0000636A01336362238D013B2385638D9BB22A
:102F1000013B9BB26385218D00293BD00329CDD88D
:102F200001293FF43EAF02297FF453AF00953346A9
:102F3000002224492046FFF7BCFA00283BD172B694
:102F40002268136843F40073136023681A69636A84
:102F50001A70636A01336362238D013B2385638D9D
:102F60009BB2013B9BB2638562B623681A69636AB0
:102F70001A70636A01336362238D013B2385638D7D
:102F80009BB2013B9BB26385C5E71A6822F480625D
:102F90001A60B1E7202384F83D30002384F83E30E6
:102FA00084F83C3077E6022775E6022773E60127AE
:102FB00071E601276FE601276DE601276BE6012721
:102FC00069E600BF04000100026802F10C0353E847
:102FD000003F23F490730C3242E800310029F3D112
:102FE000026802F1140353E8003F23F00103143296
:102FF00042E800310029F3D1036B012B05D02023D7
:1030000080F84230002303637047026802F10C032A
:1030100053E8003F23F010030C3242E8003100294E
:10302000F3D1ECE790F84130DBB2212B01D0022044
:1030300070478368B3F5805F17D0036A5A1C026239
:103040001A7803685A60C38C9BB2013B9BB2C3845D
:103050004BB90268D36823F08003D3600268D36859
:1030600043F04003D360002070470369002BE4D194
:10307000036A1B880268C3F308035360036A0233C0
:103080000362E0E710B504460268136923F4405375
:10309000C1680B43136183680269134342691A4391
:1030A0000168CB6823F4B05323F00C031343CB60C7
:1030B0000268536923F4407381690B4353610268CA
:1030C000134B9A4220D0FEF7E5FD024602EB820246
:1030D00002EB820263689B00B2FBF3F20D48A0FB97
:1030E00002314909642303FB11231B013233A0FB86
:1030F00003035B0903F0F00202EB011203F00F037C
:10310000216813448B6010BDFEF7D4FD0246DDE755
:10311000003801401F85EB512DE9F84305460F4665
:1031200016469946DDF820802B681C6837EA0404AF
:103130000CBF01240024B4422DD1B8F1FF3FF3D0DD
:10314000B8F1000F05D0FEF787FAA0EB0900404563
:10315000EAD92A6802F10C0353E8003F23F4D07344
:103160000C3242E800310029F3D12A6802F114033D
:1031700053E8003F23F00103143242E800310029F4
:10318000F3D1202385F8413085F84230002385F8BB
:103190004030032000E00020BDE8F88360B310B5A4
:1031A000044690F8413013B3242384F84130226858
:1031B000D36823F40053D3602046FFF763FF2268EF
:1031C000136923F4904313612268536923F02A039F
:1031D00053612268D36843F40053D36000206064D5
:1031E000202384F8413084F84230606310BD80F8B9
:1031F0004030FEF773F9D7E7012070472DE9F04121
:1032000082B01E4690F84130DBB2202B4BD10446F1
:103210000D46904600294AD00AB9012044E0002317
:103220004364212380F84130FEF716FA0746A4F8DC
:103230002480A4F82680A368B3F5805F02D04FF005
:1032400000080FE02369FBB14FF000080AE038F8EE
:10325000023B2268C3F308035360E28C92B2013A46
:1032600092B2E284E38C9BB28BB100963B46002283
:1032700080212046FFF750FFD8B9002DE7D015F880
:10328000012B23685A60E8E7A8460025EAE7009684
:103290003B46002240212046FFF73EFF58B920233D
:1032A00084F8413000E0022002B0BDE8F081012046
:1032B000FAE70320F8E70320F6E7704708B501684E
:1032C000CA6822F04002CA60202280F84120FFF73D
:1032D000F4FF002008BD704708B5406A0023C3858D
:1032E000C384FFF7F8FF08BD704790F84230DBB2A7
:1032F000222B69D18368B3F5805F4FD0826AB3F522
:10330000805F04D0002B56D10369002B53D1036892
:103310005B681370836A01338362C38D9BB2013B88
:103320009BB2C385002B51D100B583B00268D3682E
:1033300023F02003D3600268D36823F48073D36042
:103340000268536923F001035361202380F842305F
:1033500000234363036B012B33D100230363026813
:1033600002F10C0353E8003F23F010030C3242E853
:1033700000310029F3D103681A6812F0100F06D04B
:10338000002201921A6801925B680193019B818D72
:10339000FFF7AAFF002003B05DF804FB0269002AD2
:1033A000ACD1826A03685B68C3F308031380836A45
:1033B00002338362B1E703685B6803F07F03137035
:1033C000A8E700F09DFBE5E702207047002070476A
:1033D00010B582B0044602681368D068516913F0D2
:1033E0000F0F09D113F0200F0CD010F0200F09D0CF
:1033F0002046FFF77AFF16E011F0010115D110F415
:10340000907F12D1216B012979D013F0800F03D066
:1034100010F0800F40F0138113F0400F03D010F034
:10342000400F40F0108102B010BD13F0010F06D024
:1034300010F4807F03D0626C42F00102626413F0EA
:10344000040F04D019B1626C42F00202626413F0FE
:10345000020F04D019B1626C42F00402626413F0EE
:10346000080F07D010F0200F00D119B1626C42F0A4
:1034700008026264626C002AD5D013F0200F02D0DB
:1034800010F0200F29D123685B6903F04003626CC0
:1034900012F0080F00D163B32046FFF795FD2368B3
:1034A0005B6913F0400F20D0226802F1140353E847
:1034B000003F23F04003143242E800310029F3D1E9
:1034C000E36B73B1624A5A63E06BFEF7C3FD0028F9
:1034D000A9D0E06B436B9847A5E72046FFF705FFAF
:1034E000D1E72046FFF7F7FE9DE72046FFF7F3FE02
:1034F00099E72046FFF7EFFE0023636493E713F09C
:10350000100F82D010F0100F3FF47FAF0023019313
:103510001368019353680193019B536913F0400FA3
:1035200051D0E26B13685B689BB2002B3FF47BAF1A
:10353000A18D99427FF677AFE3859369202B37D031
:10354000226802F10C0353E8003F23F480730C322D
:1035500042E800310029F3D1226802F1140353E854
:10356000003F23F00103143242E800310029F3D177
:10357000226802F1140353E8003F23F040031432A1
:1035800042E800310029F3D1202384F8423000239F
:103590002363226802F10C0353E8003F23F0100379
:1035A0000C3242E800310029F3D1E06BFEF72EFD2A
:1035B00002236363A18DE38D9BB2C91A89B22046B1
:1035C000FFF792FE2FE7A18DE38D9BB2C91A89B256
:1035D000E38D9BB2002B3FF426AF00293FF423AFCD
:1035E000226802F10C0353E8003F23F490730C327D
:1035F00042E800300028F3D1226802F1140353E8B6
:10360000003F23F00103143242E800300028F3D1D8
:10361000202384F8423000232363226802F10C0344
:1036200053E8003F23F010030C3242E8003000283A
:10363000F3D1022363632046FFF756FEF3E62046EC
:10364000FFF7F0FCEFE62046FFF738FEEBE600BFA1
:10365000D932000881628285C28500234364222317
:1036600080F84230036923B10268D36843F4807361
:10367000D3600268536943F0010353610268D36861
:1036800043F02003D3600020704708B590F8423023
:10369000DBB2202B08D149B10AB9012008BD0023B3
:1036A0000363FFF7D7FFF9E70220F7E70120F5E70B
:1036B000002800F0A18038B5044690F82030D3B13E
:1036C0002268136843F001031360FDF7C5FF054648
:1036D00023685A6812F0010F10D1FDF7BDFF401B9F
:1036E0000A28F5D9636A43F400336362052384F83A
:1036F0002030012038BDFDF785FEE1E71A6822F091
:1037000002021A60FDF7A8FF054623685A6812F006
:10371000020F0DD0FDF7A0FF401B0A28F5D9636A00
:1037200043F400336362052384F820300120E1E78D
:10373000227E012A3DD01A6822F080021A60637E40
:10374000012B3BD02268136823F040031360A37E53
:10375000012B39D02268136823F020031360E37E25
:10376000012B37D02268136843F010031360237FC6
:10377000012B35D02268136823F008031360637FA0
:10378000012B33D02268136823F004031360A3686D
:10379000E268134322691343626913436268013A82
:1037A00021681343CB6100206062012384F820303C
:1037B000A0E71A6842F080021A60C0E72268136826
:1037C00043F040031360C2E72268136843F020030C
:1037D0001360C4E72268136823F010031360C6E780
:1037E0002268136843F008031360C8E7226813686F
:1037F00043F004031360CAE701207047F0B587B0B7
:1038000004460E461546214B1B68ADF814301B0CC0
:103810008DF8163000220392049264270097134615
:10382000B821FFF769F90120FDF71CFF009703237A
:1038300005AAB8212046FFF75FF918B101242046F8
:1038400007B0F0BD0097082303AAB8212046FFF770
:103850000FFA0446C0B99DF811309DF8100043EAF4
:103860000020FDF7ABF90A49FDF7B0FA30609DF88A
:103870000F309DF80E0043EA0020FDF79FF9044940
:10388000FDF7A4FA2860DAE70224D8E7106A0008F6
:103890000000204110B584B0044606238DF80F3097
:1038A0004FF6FF73009301230DF10F020021FFF784
:1038B00023F918B10124204604B010BD6420FDF79F
:1038C000D1FE4FF44873ADF80C304FF6FF73009300
:1038D000022303AAB0212046FFF70EF9044618B9C7
:1038E0006420FDF7BFFEE6E70324E4E770B586B089
:1038F00004460D4616464FF40263ADF8143000231B
:103900000393ADF810304FF6FF730093022305AA1E
:10391000B021FFF7F1F810B1012006B070BD6420AE
:10392000FDF7A0FE4FF6FF730093062303AAB12113
:103930002046FFF79DF970B99DF80C209DF80D30D9
:1039400043EA02232B809DF80F209DF8103043EAB4
:1039500002233380E1E70220DFE7000008B5002101
:10396000034B19708022034800F0B1FE08BD00BF70
:10397000300300203403002038B505460C46FFF71D
:10398000EDFF2046FCF7C4FB41F2883382B22146AA
:103990002846FFF733FC38BD38B505460C460846C7
:1039A000FCF7B6FB41F2883382B221462846FFF786
:1039B00025FCFFF7D3FF38BD00B5A7B0064A07497D
:1039C00001A800F021FE01A90548FFF7E5FFFFF778
:1039D000C5FF27B05DF804FB34030020646B0008CA
:1039E000F001002008B505490548FFF7C5FF4FF471
:1039F0007A60FDF737FEFFF7B1FF08BD7C6B00086A
:103A00003802002070B59AB004460D46104E114998
:103A10003046FFF7B1FFC820FDF724FEFFF79EFFF9
:103A20006422002101A800F052FE2B4622460A49DA
:103A300001A800F0E9FD01A93046FFF79DFF41F222
:103A40008830FDF70FFEFFF7B7FF1AB070BD00BF5B
:103A500038020020886B0008986B000830B58FB0E2
:103A60001F492048FFF788FF3222002101A800F0FB
:103A70002EFE6420FDF7F6FD1B491C4800F02FFECA
:103A800030B31A4A831A0733002106E001F13800E7
:103A9000684400F8342C01330131144AD25C222AE4
:103AA000F4D1134901A800F01AFE40B10DF1040C45
:103AB000104C0FCCACE80F002368ACF8003001AA22
:103AC0000D490A4800F0A0FDFFF776FF0FB030BDAA
:103AD00001AC0A4D0FCD0FC42B682380E1E700BF76
:103AE000B06B000838020020BC6B000834030020D3
:103AF000D86B0008E06B0008F46B0008C46B00088A
:103B000008B502680C4B9A4205D001220B490C48BB
:103B1000FFF7BBFD08BD0B4A137892F90020002A7D
:103B200007DB064A1178084AD1540133054A13705D
:103B3000EBE7FFF713FFE8E700380140310300200F
:103B4000380200203003002034030020FEF746FB3B
:103B50000B480C490C4A002302E0D458C4500433EB
:103B6000C4188C42F9D3094A094C002301E01360C0
:103B70000432A242FBD300F013FEFDF70DFB7047A9
:103B800000000020D4010020506F0008D401002064
:103B900004050020FEE7002B2DE9F04F1D46BBBFBA
:103BA00003F100431D4600232D2389B01446DDE9AF
:103BB0001598DDE9126BB8BF144628F0200A149A54
:103BC000BAF1460F137005D0BAF1450F00D1013696
:103BD000022300E0032307AA049206AACDE9029279
:103BE000CDE9003622462B4600F09AFEB8F1670F69
:103BF000074619D11BF0010F0ED007EB0608002273
:103C0000002320462946FCF7AFFE08B1CDF81C8002
:103C10003022079B434521D33846079B179ADB1B6D
:103C2000136009B0BDE8F08FB8F1470FE2D0BAF1E8
:103C3000460F00EB0608E2D10378302B0AD10022B0
:103C4000002320462946FCF78FFE18B9C6F101066D
:103C5000C9F80060D9F800309844D0E7591C0791A2
:103C60001A70D6E7F7B50029B6BF2D232B2349429A
:103C700009290270437029DD0DF107031D460A274B
:103C8000B1FBF7F61A4607FB1614303402F8014C64
:103C90000C46632C314603F1FF33F1DC3031941EC6
:103CA00003F8011C2346411CAB420AD30DF1090362
:103CB0009B1AAC4288BF002302330344181A03B096
:103CC000F0BD13F8016B01F8016FEDE730233031DF
:103CD0008370C170031DF1E72DE9F04F91B00C46E0
:103CE000DDF8688016461F46054600F00FFD0368A4
:103CF00018460893FCF70CFA00230E93D8F800300E
:103D00000990073323F0070303F1080294F818A081
:103D1000D4F800B0C8F80020D3E9008929F00043A6
:103D20000B93CDF828804FF0FF32DDE90A01C4E99A
:103D30001289A14BFCF74AFE70BBDDE90A014FF086
:103D4000FF329D4BFCF724FE30BB0022002340468F
:103D50004946FCF713FE10B12D2384F84330974AEF
:103D6000974BBAF1470F94BF9046984603234FF004
:103D7000000923612BF004032360334621462846C3
:103D800000970FAA00F0DEF9013040F09A804FF062
:103D9000FF3011B0BDE8F08F42464B4640464946E1
:103DA000FCF714FE48B14B46002BB8BF2D23854AC3
:103DB000B8BF84F84330844BD3E763685A1C29D1D9
:103DC0000623636000224BF48063236006920EAAF0
:103DD000CDE904A20DAA03920DF13302CDE901321F
:103DE00063684246009328464B46FFF7D4FEBAF17B
:103DF000670F80460D9915D1CB1C3BDB6368994258
:103E000038DC0E9B994255DB23682161D80745D5E4
:103E10004B1C42E00AF0DF02472AD3D1002BD1D15C
:103E20000123CEE7BAF1470F07D1C81C25DB636831
:103E30008B4222DB4FF0670AE3E7BAF1650F1FD828
:103E40005246013904F150000D91FFF70BFF0E9A15
:103E500081461318012A236102DC2268D20701D5AA
:103E6000013323619DF83330002B86D02D2384F855
:103E7000433082E74FF0650AE2E74FF0450ADFE79B
:103E8000BAF1660FBDD1002963680BDD216113B95A
:103E90002268D00702D501330B4423614FF000099B
:103EA000A165DFE713B92268D20701D50233F4E731
:103EB0000123F2E70029CCBF0122C1F10202134421
:103EC000EBE723685A0507D4236942463146284662
:103ED000B84701302BD15AE7BAF1650F40F2DC80C8
:103EE000D4E9120100220023FCF73EFD002833D064
:103EF000012331462846354AB84701303FF447AFE1
:103F0000DDE90D38434502DB2368D8070FD5DDE92D
:103F1000082331462846B84701303FF438AF4FF008
:103F2000000908F1FF3804F11A0AC84509DC2368C2
:103F30009B0700F10281E0680F9B9842B8BF1846CA
:103F400027E70123524631462846B84701303FF45F
:103F50001EAF09F10109E8E70D9B002B38DC0123B6
:103F600031462846194AB84701303FF410AFDDE921
:103F70000D3959EA030302D12368D907D7D5DDE902
:103F8000082331462846B84701303FF400AF4FF0D0
:103F9000000A04F11A0B0D9B5B42534501DC4B46B2
:103FA00093E701235A4631462846B84701303FF48B
:103FB000EEAE0AF1010AEEE7FFFFEF7FFB6B0008B0
:103FC000FF6B0008036C0008076C00080B6C00080E
:103FD000A36DDDF838A05345A8BF5346002B994682
:103FE00036DC4FF0000B29EAE97904F11A02A36DDF
:103FF0000A93A3EB09035B4531DC0D9B9A453ADC40
:104000002368DA0737D40D9BAAEB03090A9BAAEBB6
:1040100003039945A8BF9946B9F1000F33DC4FF06F
:10402000000829EAE97904F11A0B0D9BAAEB0303B6
:10403000A3EB090343457FF77AAF01235A46314684
:104040002846B84701303FF4A2AE08F10108ECE77A
:10405000424631462846B8470130C2D197E601238F
:10406000314628460A92B84701303FF490AE0A9A8A
:104070000BF1010BBBE73146DDE908232846B847C1
:104080000130C0D183E60A9A4B4631462846424465
:10409000B8470130C3D17AE6DDF838A0BAF1010F94
:1040A00001DCDB0736D50123424631462846B847B6
:1040B00001303FF46CAEDDE9082331462846B847AD
:1040C00001303FF464AED4E91201002200230AF16A
:1040D000FF3AFCF749FCC0B9534608F101023146EA
:1040E0002846B84701300CD151E601235A463146E3
:1040F0002846B84701303FF44AAE08F10108D045E0
:10410000F3DB4B4604F15002E0E64FF0000804F107
:104110001A0BF4E701234246E1E701234A46314600
:104120002846B84701303FF432AE08F10108E36891
:104130000F995B1A4345F0DCFDE64FF0000804F1EF
:104140001909F4E72DE9F047164698468A680B6985
:1041500007469342B8BF1346336091F843200C469C
:10416000DDF820900AB1013333602368990642BF1D
:10417000336802333360256815F0060506D104F173
:10418000190AE36832689B1AAB422BDC94F843307F
:104190002268003B18BF0123920630D441463846BE
:1041A00004F14302C847013023D02368226903F099
:1041B0000603042B14BF002533684FF0000608BF28
:1041C000E56804F11A0408BFED1A54F8123C08BF60
:1041D00025EAE5759342C4BF9B1AED18B5421AD182
:1041E000002008E00123524641463846C8470130C6
:1041F00003D14FF0FF30BDE8F0870135C1E7302033
:10420000E11881F843005A1C94F845102244023307
:1042100082F84310C2E70123224641463846C84788
:104220000130E6D00136D9E72DE9FF470F7E9146F0
:10423000782F80460C469A460C9D01F1430207D820
:10424000622F0AD8002F00F0E080582F00F0BB80CA
:1042500004F1420684F842703AE0A7F16303152B9B
:10426000F6D801A151F823F0C1420008D542000858
:1042700051420008514200085142000851420008D2
:10428000D54200085142000851420008514200083E
:1042900051420008F143000865430008A7430008A5
:1042A00051420008514200081344000851420008DE
:1042B000654300085142000851420008AF4300081E
:1042C0002B6804F142061A1D1B682A6084F84230EC
:1042D0000123ABE0236829681F0601F10400286070
:1042E00001D50D6803E05E06FBD5B1F90050002D45
:1042F00061687ADA2D20002984F84300A1602DDA64
:104300000A235E486D421646B5FBF3F103FB1157D5
:10431000C75D06F8017D2F46BB420D46F4D9082B38
:104320000BD12368DF0708D5236961689942DEBF96
:10433000302306F8013C06F1FF36921B22614B4602
:1043400021464046CDF800A003AAFFF7FBFE01304E
:1043500071D14FF0FF3004B0BDE8F08723F00403C3
:104360002360CDE72B682068191D2960050601D55B
:104370001D6802E04106FBD51D886F2F14BF0A237C
:1043800008233E48002184F843106668002EA6608A
:10439000B9DB216821F004012160002DB3D1002E8A
:1043A000B1D11646BBE7236843F02003236078278A
:1043B000334884F84570296823680E1D2E601E0658
:1043C00003D50D6804E02D48F3E75D06F9D50D88A7
:1043D000D90744BF43F0200323600DB11023D1E778
:1043E000236823F020032360F8E70A232348CCE75F
:1043F0002B682668181D6169286035061B6801D581
:10440000196002E07006FBD519800023164623616F
:1044100095E72B6800211A1D2A601E6862683046E5
:1044200000F0E5F908B1801B606063682361002338
:1044300084F8433083E73246494640462369D047F3
:10444000013086D023689B0714D4E068039B984210
:10445000B8BF18467FE70123324649464046D04759
:1044600001303FF476AF0135E36803995B1AAB4244
:10447000F1DCEAE7002504F11906F5E70D6C000808
:104480001E6C0008002310B50446C0E90033C0E9E3
:104490000433836081814366C281836119460822A7
:1044A0005C3000F014F90D4B246263620C4BA36284
:1044B0000C4BE3620C4B23630C4B9C4206D003F184
:1044C0006802944202D0D0339C4205D104F15800D6
:1044D000BDE8104000F088B910BD00BF4946000893
:1044E0006B460008A3460008C7460008B403002036
:1044F000024A0349034800F069B800BF0C000020DD
:104500001D6200081C00002041680C4B10B5994248
:10451000044601D001F082FEA168094B994202D005
:10452000204601F07BFEE168064B994204D020460C
:10453000BDE8104001F072BE10BD00BFB403002002
:104540001C0400208404002010B50B4B0B4C0C4ABB
:1045500020461A6004210022FFF794FF04F168004E
:1045600001220921FFF78EFF04F1D0000222BDE8ED
:1045700010401221FFF786BFEC040020B403002096
:10458000F1440008014800F030B900BFF5040020F4
:10459000014800F02BB900BFF504002010B5044617
:1045A000FFF7F0FF236A1BB1BDE81040FFF7F0BF33
:1045B000044B2362044B1B68002BF5D1FFF7C4FFAB
:1045C000F2E700BF09450008EC0400202DE9F8439C
:1045D0000746884614460026D4E90195B9F1010939
:1045E00005D52468002CF7D13046BDE8F883AB89A7
:1045F000012B07D9B5F90E30013303D029463846CF
:10460000C04706436835E9E70EB46FF0004100B5D6
:104610009CB01DAB0290069007910491084809498F
:1046200053F8042B0591006802A9019301F07AFC6C
:104630000022029B1A701CB05DF804EB03B07047B7
:10464000180000200802FFFF10B50C46B1F90E104B
:1046500000F082F80028ABBF636DA3891B1823F418
:104660008053ACBF6365A38110BD2DE9F0411F46A7
:104670008B890546DB050C46164605D5022300222C
:10468000B1F90E1000F056F8A389324623F4805396
:10469000A38128463B46B4F90E10BDE8F04100F076
:1046A0006DB810B50C46B1F90E1000F043F8431C7C
:1046B000A38915BF606523F4805343F48053A3811D
:1046C00018BFA38110BDB1F90E1000F023B8034646
:1046D0000244934200D1704703F8011BF9E70A78BE
:1046E00070B56AB970BD9A4209D10C46054614F8F6
:1046F000013F002BF6D015F8016F9E42F7D0013034
:104700000378002BEFD11846ECE700000048704713
:104710005801002038B50023054D044608462B609B
:1047200002F018F9431C02D12B6803B1236038BD95
:10473000F004002038B50446084611460022054D15
:104740002A601A4602F02EF9431C02D12B6803B1ED
:10475000236038BDF004002038B5044608461146F1
:104760000022054D2A601A4602F024F9431C02D1AA
:104770002B6803B1236038BDF004002038B504462F
:10478000084611460022054D2A601A4602F028F913
:10479000431C02D12B6803B1236038BDF004002014
:1047A00070B500260C4D0D4C641BA410A64209D117
:1047B00002F020F900260A4D0A4C641BA410A64200
:1047C00005D170BD55F8043B98470136EEE755F822
:1047D000043B98470136F2E7486F0008486F00082D
:1047E000486F00084C6F00087047704770470346D9
:1047F00010B5C9B202449342184601D1002003E02B
:10480000047801338C42F6D110BD2DE9F74F0369CE
:104810000C690746A3427EDB013CA30000F11405AE
:1048200001F11408009305EB8403019358F8243038
:1048300055F8242001339A42B2FBF3F608EB8409C1
:104840002ED34FF0000AC446AE46D3465CF8043B74
:1048500098B206FB00A01B0C020C06FB0323DEF83B
:10486000002080B292B2121A5A44DEF800004FEAD9
:10487000134A9BB2C3EB224303EB104392B242EACA
:104880000342E1454FEA234B4EF8042BDED2009B56
:10489000EB582BB9019B043B9D421A462FD33C6138
:1048A000384601F0DBF9002825DB2946002058F8BE
:1048B000042BD1F800C01FFA82FE1FFA8CF3A3EB81
:1048C0000E030344120CC2EB234202EB1C429BB2C8
:1048D00043EA0243C1454FEA224041F8043BE6D295
:1048E00055F8242005EB840322B9043B9D421A4667
:1048F0000BD33C610136304603B0BDE8F08F12683F
:10490000043B002ACBD1013CC6E71268043B002AD5
:10491000EFD1013CEAE70020EEE7000000000000D4
:104920002DE9F04F14461D46C76997B08346CDE97F
:104930000445239E7FB9102000F066FE0246CBF8A6
:104940001C0020B9EF21A24BA24801F0C7FCC0E92E
:1049500001770760C760DBF81C30196859B15A68E5
:10496000012393404A608B60584600F03BFF0022D1
:10497000DBF81C301A602B1EAFBF0023012223F08E
:1049800000430593A8BF3360059F934BB8BF3260C7
:10499000BB4319D142F20F73229A1360C7F313037A
:1049A000234300F0E085249B53B98C4B21E08C4BD2
:1049B00008930833249A1360089817B0BDE8F08F65
:1049C000864B08930333F5E7DDE90423CDE90C2397
:1049D000DDE90C0100220023FBF7C6FF804650B141
:1049E0000123229A1360249B13B17E4B249A1360F7
:1049F0007D4B0893E0E714AB019315AB0093584649
:104A0000DDE90C2301F0DAF9C7F30A560390002E12
:104A10007BD0DDE90C010D9BA6F2FF36C3F3130337
:104A200043F07F5343F44013CDF84C8019460022E5
:104A30006E4BFBF779FB60A3D3E90023FBF72CFD5A
:104A40005FA3D3E90023FBF771FB044630460D4614
:104A5000FBF7B8FC5CA3D3E90023FBF71DFD02467E
:104A60000B4620462946FBF761FB04460D46FBF743
:104A7000C3FF00220746002320462946FBF77EFF9E
:104A800040B13846FBF79EFC22462B46FBF76CFFF5
:104A900000B9013F162F55D8DDE90C01544B03EB4B
:104AA000C703D3E90023FBF769FF00284CD000239C
:104AB000013F1293149B9B1B5A1E49BFC3F1010374
:104AC0000023069300230A9254BF06930A93002FF3
:104AD0003CDB0A9B0F973B440A9300230B93209BDC
:104AE000092B00F28980052BC4BF043B2093209B37
:104AF000C8BF0024A3F10203D8BF0124032B00F296
:104B00008680DFE803F02B383657DDE914631E4456
:104B100006F23243202BC1BFC3F140039F4006F28F
:104B2000124324FA03F3D6BFC3F1200347EA03007C
:104B300004FA03F0FBF736FC0122A1F1F873013E01
:104B4000139273E70123B4E71290B3E7069BDB1BD4
:104B500006937B420B9300230F93C0E700230E9331
:104B6000219B002B56DC012399461A46099321927A
:104B70000CE00123F3E700230E93219BFB1803F1C4
:104B8000010909934B46012BB8BF012300210422E0
:104B9000DBF81C0002F114059D423FD941605846E4
:104BA00000F0E0FD089000283BD1024640F2AF1132
:104BB000104BC9E60123DFE761436F63A787D23F4C
:104BC000B3C8608B288AC63FFB799F501344D33FFC
:104BD0003C6C0008536C00080000F07F386C000843
:104BE0002F6C00080C6C00080B6C00080000F83FEC
:104BF000206D0008956C0008012400230E9420937A
:104C00004FF0FF330022994609931223AFE70123A7
:104C10000E93F5E7219B99460993B7E701315200BE
:104C2000B8E7DBF81C30089AB9F10E0F1A606FD89C
:104C3000002C6DD0002F36DDA14B07F00F0203EBE7
:104C4000C203F805D3E90034CDE910344FEA271444
:104C500017D5DDE90C019B4B4FF00308D3E908237E
:104C6000FBF744FDCDE9040104F00F04954D5CB958
:104C7000DDE91023DDE90401FBF738FDCDE904018E
:104C80002BE04FF00208F1E7E10709D5DDE910015B
:104C9000D5E90023FBF700FCCDE9100108F101087C
:104CA00064100835E3E700F00781DDE90C017C4280
:104CB000834B04F00F0203EBC203D3E90023FBF79D
:104CC000EBFB4FF002080023CDE904017D4D2411D8
:104CD000002C40F0E580002BD0D1DDE90445129B8B
:104CE000002B00F04C81002220462946764BFBF732
:104CF00045FE002800F04381B9F1000F00F03F812C
:104D0000099B002B00F3E480DDE90C34CDE9043489
:104D1000159B002B02DB0E2F40F342820E9A002AD5
:104D200040F0678200250B9CDDF81880B8F1000F79
:104D30000DD00A9B002B0ADD4345A8BF4346069AC7
:104D4000A8EB0308D21A06920A9AD31A0A930B9B6D
:104D50000BB30E9B002B00F0A682002C00F0A1826A
:104D600029462246584600F0B3FE039A01460546FE
:104D7000584600F005FE03990646584600F032FDFD
:104D80000B9B1B1B0B9300F0918231460B9A5846EC
:104D900000F09EFE03900121584600F0DBFD0F9BC2
:104DA0000446002B00F084821A460146584600F063
:104DB0008FFE209B0446012B03DC049B002B00F09C
:104DC0007C820026236904EB8303186900F072FDDE
:104DD0000F96C0F120000A9B184410F01F0000F04D
:104DE0009182C0F12003042B40F38182069BC0F125
:104DF0001C00034406930A9B804403440A93069BC9
:104E0000002B05DD1A465846039900F0BBFE0390BF
:104E10000A9B002B05DD21461A46584600F0B2FEDB
:104E20000446129B002B00F076822146039800F086
:104E300015FF002880F26F8200230A22584603994A
:104E400000F0F2FC0E9B7E1E0390002B00F05C82B3
:104E5000002329460A22584600F0E6FC099B054635
:104E6000002B03DC209B022B00F35E82B8F1000FC5
:104E700005DD29464246584600F084FE05460F9B54
:104E8000002B00F0D0825846696800F06BFC0746A2
:104E9000002840F07F82024640F2EF210B4B53E5A1
:104EA000E20706D5D5E90023FBF7F6FA012308F15E
:104EB0000108641008350BE74FF002080DE700BF4A
:104EC000206D0008F86C00080000F03F956C0008A9
:104ED000204600222946AC4BFBF7DEFACDE904015F
:104EE000099C7E1E08F101084046FBF76BFADDE9DC
:104EF0000423FBF7D1FAA54B0022FBF717F9A1F128
:104F00005073CDE910011193002C3BD1DDE9040170
:104F100000229F4BFBF708F902460B46CDE904231C
:104F2000DDE91023FBF748FD002840F05781DDE95B
:104F3000102101F10043DDE90401FBF71FFD00280A
:104F40003FF4E2AE00242546219BDDF820A0DE439D
:104F50004FF000082146584600F044FC002D00F0B8
:104F6000A980B8F1000F05D0A84503D041465846A6
:104F700000F038FC2946584600F034FC9AE03E46E2
:104F80004C46B1E7834B03EBC40353E90201089B92
:104F90001C440E9B002B4AD002460B4600207E4943
:104FA000FBF7A4FBDDE91023FBF7BEF8CDE9100108
:104FB000DDF820A0DDE90401FBF71EFD0546FBF747
:104FC00001FA02460B46DDE90401FBF7ADF8303586
:104FD00002460B46CDE90401DDE910010AF8015B48
:104FE000FBF7EAFC002865D1DDE9042300206B49CA
:104FF000FBF79AF802460B46DDE91001FBF7DCFCF3
:10500000002840F00D81A24500F0EA80DDE91001A2
:1050100000225D4BFBF740FA0022CDE91001DDE9EB
:105020000401594BFBF738FACDE90401C2E7DDE989
:105030001023FBF731FAA046CDE91001DDF820A0DE
:10504000DDE90401FBF7D8FC0546FBF7BBF9024696
:105050000B46DDE90401FBF767F802460B463035E5
:105060000AF8015BA245CDE904234FF0000223D1E9
:10507000DDE91001484BFBF759F802460B46DDE924
:105080000401FBF799FC002840F0CA80DDE91023F9
:1050900000204149FBF748F802460B46DDE90401D0
:1050A000FBF76CFC70B1C2461AF8013C08F1FF38FE
:1050B000302BF8D0374655E0334BFBF7EDF9CDE90F
:1050C0000401BDE7DDE90C34CDE90434159B002B68
:1050D000FFF628AE0E2F3FF725AE2E4B03EBC7038E
:1050E000D3E90034CDE90634219B002B02DAB9F173
:1050F000000F64D0DDE90445DDF820A0DDE90623DA
:1051000020462946FBF7F2FAFBF776FC0646FBF74A
:1051100059F9DDE90623FBF7BFF902460B462046A5
:105120002946FBF701F806F130040AF8014B089C08
:105130000246AAEB0404A1450B4640F08280FAF730
:10514000F5FFDDE9062304460D46FBF735FC002894
:1051500065D1DDE9062320462946FBF705FC08B1A9
:10516000F3075CD45846039900F03CFB00238AF80F
:105170000030229B01371F60249B002B3FF41CACA6
:10518000C3F800A018E400BF0000244000001C4049
:1051900000001440206D00080000E03F0000F03FD8
:1051A000A24B03EBC703D3E90034CDE90634219BBE
:1051B000002B9FDAB9F1000F9CDC7FF4C3AEDDE970
:1051C000060100229A4BFBF767F9DDE90423FBF7A0
:1051D000E9FB044600287FF4B5AE3E462546B4E020
:1051E000DDE90C34CDE90434159B002B01DB0E2FD7
:1051F000D6DD209A012A36DC139A82B303F23343B8
:105200000B9CDDF81880069A01211A4406920A9A2E
:1052100058461A440A9200F09DFB054686E53E4634
:1052200053469A4613F8012D392A06D1089A9A4214
:10523000F7D13022089901360A701A7801321A70B3
:1052400038E700227B4BFBF727F9002200230446B6
:105250000D46FBF789FB00283FF450AF82E7149B13
:10526000C3F13603CCE70B9B09F1FF34A34208DB03
:10527000B9F1000FA3EB04040EDB4B46DDF81880F8
:10528000C1E70B9B0F9AE31A1A440B944B46002478
:10529000DDF818800F92B6E7069BA3EB0908002300
:1052A000B1E7039E71E50B9A039970E5039672E5E9
:1052B000209B012B17DC049BABB9059BC3F31303A5
:1052C0009BB9059B23F00046360D360536B1012605
:1052D000069B013306930A9B01330A930F9B002B15
:1052E0007FF470AD0F96012075E50026F6E73FF4D8
:1052F00086AD069A1C331A4406920A9A98441A44B8
:105300000A927CE50346F4E7099B002B2BDC209BEB
:10531000022B09DC27E0B9F1000F1DDC209B022BDA
:105320001ADD3E46CDF82490099B002B7FF40CAE8D
:1053300021460522584600F077FA014604460398B4
:1053400000F08CFC00287FF7FFAD3123DDF820A0B2
:1053500001360AF8013BFBE50E9B3E46CDF8249052
:10536000002B7FF483AD089F21460398FFF74DFA89
:10537000089B00F13009099A07F8019BFB1A9A4231
:1053800040F3CB8000230A225846039900F04CFAE0
:105390000390E9E72A6905F10C01023292000C3012
:1053A00000F08EFF01223946584600F0EBFBA8467C
:1053B0000546089B03F1010ADDE9082313440A931B
:1053C000049B03F001030B930AF1FF33214603987A
:1053D0000693FFF71AFA4146099000F13009039845
:1053E00000F03CFC2A4621460746584600F052FC95
:1053F000C268014602B3584600F0F4F9002F3ADAC9
:1054000001220399584600F0BDFB2146039000F0AD
:1054100025FC002803DC29D119F0010F26D0B9F1B1
:10542000390F1DD132E02846C1E700BF206D0008CA
:1054300000001440000024400E90039800F00EFC81
:105440000E990C90584600F0CDF90C9A5ABB209B4F
:1054500053B90B9B43B9B9F1390F17D0002F05DDB4
:10546000099B03F1310901E0002F2ADADDF818A0C9
:105470000AF8019B6EE5209B3B4304D1049B03F09B
:105480000103002BBCD0B9F1390F36D13923069F67
:1054900007F8013BBA461AF8013C013F392B5AD0B4
:1054A00001333B7056E5002F06DB209B3B4306D1C2
:1054B000049B03F0010313B9002AA1DCD6E7002AFC
:1054C000E1DC0A9B574653450AF8019C2ED0002385
:1054D0000A220399584600F0A7F9A84503904FF017
:1054E00000034FF00A02414658460BD100F09CF9E8
:1054F000804605460AF1010A66E7DDF818A009F1C1
:105500000109B5E700F090F92946804600230A22F8
:10551000584600F089F90546ECE7099B4FF0000872
:10552000002BCCBF1F460127089B1F440122039973
:10553000584600F027FB2146039000F08FFB00281F
:10554000A8DC02D119F0010FA4D1BA4617F8013D29
:10555000302BFAD0FEE4089BBB429BD13123089A42
:1055600001361370F6E4249B002B7FF420AA014B34
:10557000FFF73FBA2F6C000838B50546002940D028
:1055800051F8043C0C1F002BB8BFE41800F0DEF803
:105590001C4A136833B9636014602846BDE838407C
:1055A00000F0DAB8A34208D9206821188B4201BF65
:1055B00019685B6809182160EDE71A465B680BB152
:1055C000A342FAD911685018A0420BD120680144B7
:1055D000501883421160E0D118685B68084410607D
:1055E0005360DAE702D90C232B60D6E72068211834
:1055F0008B4201BF19685B680918216063605460C1
:10560000CBE738BDFC040020024B0146186800F0CF
:1056100025B800BF1800002070B50F4E0C46316849
:10562000054611B900F03CFE30602146284600F0E6
:1056300037FE431C03D14FF0FF34204670BDC41C1D
:1056400024F00304A042F8D0211A284600F028FED6
:105650000130F2D1EFE700BFF80400202DE9F0415E
:10566000CD1C25F0030508350C2D38BF0C25002D69
:10567000064601DBA94204D90C2333600020BDE8B3
:10568000F081314F00F062F83B681C4644BB29466C
:105690003046FFF7C1FF431C044650D13C68214609
:1056A000002941D1002C44D02368304604EB030884
:1056B00000F0F6FD80453CD1216830466D1A294640
:1056C000FFF7AAFF013034D023682B4423603B68E6
:1056D000002B36D05A68A24229D100225A600EE02F
:1056E0002268521B1DD40B2A16D96119A3422560CA
:1056F00018BF5960636808BF396062514B6030461B
:1057000000F02AF804F10B00231D20F00700C21A54
:10571000B5D01B1AA350B2E7A3426268DED13A604B
:10572000EDE723466468B1E70C464968B8E71346DD
:10573000CEE70C233046336000F00EF89EE705609C
:10574000DDE75B60FFDE00BFFC0400200148FFF7DF
:105750004CB800BFF40400200148FFF747B800BF71
:10576000F404002070B5C66904460D4676B91020D1
:10577000FFF74AFF0246E06120B96B21174B18483A
:1057800000F0ACFDC0E901660660C660E669F3683A
:1057900083B1E369DB6853F82500B8B9012101FA48
:1057A00005F6721D2046920000F0B6FD60B1C0E91A
:1057B00001560EE021220421204600F0ADFDE369F0
:1057C000F060DB68002BE4D1002070BD026843F874
:1057D00025200023C0E90333F7E700BF3C6C000835
:1057E000A66C000870B5C66905460C4676B910204F
:1057F000FFF70AFF0246E86120B98F21084B0948EC
:1058000000F06CFDC0E901660660C6603CB1EB6962
:105810006268DB6853F82210216043F8224070BDB3
:105820003C6C0008A66C00082DE9F04107460C46C8
:105830001E4600200D6901F1140CDCF80030013027
:1058400099B202FB01611E0C0B0C02FB063389B2FC
:1058500001EB034185424FEA13464CF8041BECDC94
:105860000EB3A368AB4219DC616838460131FFF71B
:1058700079FF804628B90246BA210C4B0C4800F04B
:105880002DFD226904F10C01023292000C3000F06F
:1058900017FD21463846FFF7A5FF444604EB850374
:1058A00001355E6125612046BDE8F081956C0008F8
:1058B000A66C00080346B0F5803F3ABF03041020F1
:1058C0000020B3F1807F3CBF1B020830B3F1805F42
:1058D0003CBF1B010430B3F1804F03D3002B0ADB24
:1058E000013070479B0001D5023070475B0001D545
:1058F00003307047202070470368024613F007000A
:105900000BD0D90721D4980749BF5B089B08012019
:1059100013605CBF02201360704799B209B9102070
:105920001B0CD9B209B908301B0A190704BF1B099F
:105930000430990704BF9B080230D90703D45B08E1
:1059400000F1010003D01360704700207047202051
:105950007047000010B50C460121FFF703FF024617
:1059600028B940F24511044B044800F0B7FC01236C
:105970004461036110BD00BF956C0008A66C00086F
:105980002DE9F04F14460A6923690F469A42A2BFD7
:1059900023460C461F46D4F810A0D7F81090A368F1
:1059A00061680AEB0906B34285B0B8BF0131FFF761
:1059B000D9FE30B902464FF4B171434B434800F071
:1059C0008DFC00F114052B46002205EB86084345AB
:1059D00021D307F1140104F1140202EB8A0201EB56
:1059E00089030293131B153B23F00303043304F1D3
:1059F0001507BA4238BF04230193029B03918B42DF
:105A00000CD8002E03DD58F8043D002B5AD0066157
:105A100005B0BDE8F08F43F8042BD8E7B1F800A03B
:105A2000BAF1000F23D0A9464FF0000C04F1140E78
:105A30005EF8047BD9F800301FFA87FB9BB20AFBA3
:105A40000B336344D9F800C03F0C4FEA1C4C0AFBEF
:105A500007C707EB13479BB243EA074372454FEA78
:105A6000174C49F8043BE3D8019B45F803C0039B5E
:105A70000431B3F80290B9F1000F21D0AE464FF0D7
:105A8000000A2B6804F1140CBCF800B0BEF80270D8
:105A90009BB209FB0B77574443EA07434EF8043B9C
:105AA0005CF8043B4FEA134ABEF80030624509FB3C
:105AB0000A3303EB17434FEA134AE5D8019FEB5132
:105AC00004359AE7013E9CE7956C0008A66C000837
:105AD0002DE9F843154612F0030207460E4607D09B
