:020000040800F2
:1000000000280020E91C0008C9030008CB030008F1
:10001000CD030008CF030008D10300080000000052
:10002000000000000000000000000000D3030008F2
:10003000D503000800000000D7030008D90300081A
:10004000311D0008311D0008311D0008311D000858
:10005000311D0008311D0008311D0008311D000848
:10006000311D0008311D0008311D0008311D000838
:10007000311D0008311D0008311D0008311D000828
:10008000311D0008311D0008311D0008311D000818
:10009000311D0008311D0008311D0008311D000808
:1000A000311D0008311D0008311D0008311D0008F8
:1000B000311D0008311D000800000000311D00083E
:1000C000311D00080000000000000000311D000884
:1000D00000000000311D0008E103000800000000DE
:1000E000311D0008311D0008311D0008000000000E
:1000F0000000000000000000000000000000000000
:0C01000000000000000000005FF808F1A3
:10010C00034613F8012B002AFBD1181A013870474B
:10011C0010B5054C237833B9044B13B10448AFF335
:10012C0000800123237010BD0C0000200000000093
:10013C008C1D000808B5034B1BB103490348AFF3F2
:10014C00008008BD00000000100000208C1D00087D
:10015C0030B589B0002404940594069407941D4B83
:10016C009A6942F010029A619A6902F010020092A8
:10017C00009A9A6942F020029A619A6902F0200270
:10018C000192019A9A6942F004029A619A6902F00A
:10019C0004020292029A9A6942F008029A619B69DF
:1001AC0003F008030393039B0B4D22464FF40051BD
:1001BC00284600F025FF4FF40053049301230593C8
:1001CC0006940323079304A9284600F00FFE09B0F8
:1001DC0030BD00BF001002400010014072B6FEE7B7
:1001EC0000B585B000230193029303930F48104A86
:1001FC0002608360037303754FF46022C261436035
:10020C000123036101F0C0F860B9002301930122BE
:10021C000292039301A9054800F0EAFF20B905B04A
:10022C005DF804FBFFF7DAFFFFF7D8FF0C010020A5
:10023C000024014008B50A480A4B03600A4B43608E
:10024C0000238360C3604FF4804202614361836189
:10025C00C361036201F01CF900B908BDFFF7BEFFD2
:10026C00B800002000540040A086010008B50A48E0
:10027C000A4B03604FF4E133436000238360C36097
:10028C0003610C2242618361C36101F0C9FA00B9B8
:10029C0008BDFFF7A3FF00BF70000020003801402D
:1002AC0008B50A480A4B03604FF4E133436000235E
:1002BC008360C36003610C2242618361C36101F0FE
:1002CC00AFFA00B908BDFFF789FF00BF2800002076
:1002DC000044004000B595B0282200210DEB02002F
:1002EC0001F021FD002305930693079308930993CE
:1002FC00019302930393049301220A924FF48033E7
:10030C000B930E920222119212934FF4E01313935B
:10031C000AA800F0D1F9C8B90F2305930221069160
:10032C00002307934FF480620892099305A800F00C
:10033C00F5FB68B9022301934FF40043039301A822
:10034C0000F0C8FC30B915B05DF804FBFFF746FFB0
:10035C00FFF744FFFFF742FF00B585B000F05EF9F0
:10036C00FFF7B8FFFFF7F4FEFFF73AFFFFF762FF66
:10037C00FFF77CFFFFF794FF4FF400510C4800F09F
:10038C0045FE4FF47A7000F06DF90A4BEC460FCB3A
:10039C00ACE80700ACF800306846FFF7B1FE4FF44C
:1003AC007A7382B26946044801F06AFAE4E700BF46
:1003BC0000100140A41D000828000020FEE7FEE705
:1003CC00FEE7FEE7FEE770477047704708B500F0A0
:1003DC0037F908BD08B5024801F03EFB08BD00BF67
:1003EC002800002082B00E4B9A6942F001029A61FB
:1003FC009A6902F001020092009ADA6942F0805286
:10040C00DA61DB6903F080530193019B054A536861
:10041C0023F0E06343F00073536002B0704700BFF9
:10042C00001002400000014000B587B00023029389
:10043C000393049305930268114B9A4202D007B0C0
:10044C005DF804FB03F56C439A6942F400729A61FF
:10045C009A6902F400720092009A9A6942F00402BE
:10046C009A619B6903F004030193019B012302939E
:10047C000323039302A9034800F0B8FCDFE700BF95
:10048C00002401400008014010B586B000230293FF
:10049C000393049305930268114B9A4201D006B062
:1004AC0010BD104CA36943F00803A361A36903F0CA
:1004BC0008030093009BC02302931223039303238E
:1004CC00059302A9084800F091FCE36943F400137A
:1004DC00E361E36903F400130193019BDFE700BFC1
:1004EC000054004000100240000C014030B589B0AF
:1004FC00002304930593069307930368304A9342B1
:10050C0004D0304A93422BD009B030BD2E4B9A699F
:10051C0042F480429A619A6902F480420092009AF5
:10052C009A6942F004029A619B6903F004030193F7
:10053C00019B4FF400730493022305930323079349
:10054C00224C04A9204600F051FC4FF48063049324
:10055C0000230593069304A9204600F047FCD3E73B
:10056C00194BDA6942F40032DA61DA6902F40032CA
:10057C000292029A9A6942F004029A619B6903F012
:10058C0004030393039B0423049302230593032383
:10059C0007930E4D04A9284600F028FC0823049369
:1005AC0000240594069404A9284600F01FFC22465A
:1005BC002146262000F0E8FD262000F0F5FDA3E7FB
:1005CC000038014000440040001002400008014087
:1005DC0010B504460E4B1A784FF47A73B3FBF2F352
:1005EC000C4A1068B0FBF3F000F0ECFD68B90F2C6E
:1005FC0001D901200AE0002221464FF0FF3000F023
:10060C00C3FD054B1C60002000E0012010BD00BFA5
:10061C0000000020080000200400002008B5074A54
:10062C00136843F010031360032000F09BFD0F20B0
:10063C00FFF7CEFFFFF7D6FE002008BD00200240DA
:10064C00034A1168034B1B780B441360704700BFBF
:10065C003C01002000000020014B1868704700BFCF
:10066C003C01002038B50446FFF7F6FF0546B4F10F
:10067C00FF3F02D0044B1B781C44FFF7EDFF401BDF
:10068C00A042FAD338BD00BF0000002082B0084B56
:10069C001B68084AA2FB03235B0A00FB03F30193CC
:1006AC0000BF019B5A1E0192002BF9D102B070477A
:1006BC0008000020D34D6210002800F0F18170B5C5
:1006CC0082B00446036813F0010F2CD0994B5B6881
:1006DC0003F00C03042B1DD0964B5B6803F00C034A
:1006EC00082B12D06368B3F5803F41D0002B55D155
:1006FC0003F1804303F504331A6822F480321A6044
:10070C001A6822F480221A6037E08A4B5B6813F473
:10071C00803FE7D0874B1B6813F4003F03D063681E
:10072C00002B00F0BF81236813F0020F75D0814BB2
:10073C005B6813F00C0F5FD07E4B5B6803F00C030F
:10074C00082B54D02369002B00F08A807A4B0122AD
:10075C001A60FFF781FF0546764B1B6813F0020FFA
:10076C0075D1FFF779FF401B0228F5D903209EE1D4
:10077C00704A136843F480331360636843B3FFF724
:10078C006BFF05466B4B1B6813F4003FCBD1FFF797
:10079C0063FF401B6428F5D9032088E1B3F5A02F33
:1007AC0009D0644B1A6822F480321A601A6822F459
:1007BC0080221A60E1E703F18043A3F53C331A6809
:1007CC0042F480221A601A6842F480321A60D4E72C
:1007DC00FFF742FF0546574B1B6813F4003FA2D0AE
:1007EC00FFF73AFF401B6428F5D903205FE1514B1A
:1007FC005B6813F4803FA5D14E4B1B6813F0020FBE
:10080C0003D02369012B40F04F814A4A136823F02F
:10081C00F803616943EAC1031360236813F0080FFE
:10082C0033D0A369002B5CD0434B0122C3F8802446
:10083C00FFF712FF05463F4B5B6A13F0020F21D105
:10084C00FFF70AFF401B0228F5D903202FE1394A94
:10085C00136823F0F803616943EAC1031360DCE712
:10086C00354B00221A60FFF7F7FE0546314B1B682B
:10087C0013F0020FD1D0FFF7EFFE401B0228F5D981
:10088C00032014E10120FFF701FF236813F0040F8C
:10089C0000F09680274BDB6913F0805F34D1254B39
:1008AC00DA6942F08052DA61DB6903F0805301931C
:1008BC00019B0125214B1B6813F4807F26D0E36834
:1008CC00012B3DD0002B53D103F1804303F50433AE
:1008DC001A6A22F001021A621A6A22F004021A62DF
:1008EC0033E0154B0022C3F88024FFF7B5FE054614
:1008FC00104B5B6A13F0020FC7D0FFF7ADFE401B25
:10090C000228F5D90320D2E00025D3E70B4A13685F
:10091C0043F480731360FFF79FFE0646074B1B687A
:10092C0013F4807FCBD1FFF797FE801B6428F5D999
:10093C000320BCE000100240000042420070004066
:10094C005F4A136A43F001031362E36833B3FFF7A2
:10095C0083FE06465A4B1B6A13F0020F2FD1FFF78A
:10096C007BFE801B41F288339842F3D903209EE032
:10097C00052B09D0524B1A6A22F001021A621A6A2C
:10098C0022F004021A62E0E74D4B1A6A42F00402AC
:10099C001A621A6A42F001021A62D6E7FFF75CFE8D
:1009AC000646474B1B6A13F0020F08D0FFF754FEA4
:1009BC00801B41F288339842F3D9032077E0E5B9E4
:1009CC00E369002B72D03E4A526802F00C02082AEE
:1009DC0056D0022B17D03B4B00221A66FFF73CFE79
:1009EC000446374B1B6813F0007F47D0FFF734FEEB
:1009FC00001B0228F5D9032059E0314AD36923F0B2
:100A0C008053D361DCE72F4B00221A66FFF724FEDC
:100A1C0005462B4B1B6813F0007F06D0FFF71CFE1E
:100A2C00401B0228F5D9032041E0236AB3F5803F2F
:100A3C001AD023494B6823F47413226A606A024368
:100A4C0013434B601F4B01221A66FFF705FE044649
:100A5C001B4B1B6813F0007F0ED1FFF7FDFD001B35
:100A6C000228F5D9032022E0154A536823F40033F9
:100A7C00A1680B435360DCE7002018E0002016E06F
:100A8C00012B16D00E4B5B6803F48031226A914225
:100A9C0011D103F47013626A93420ED1002006E068
:100AAC0001207047012002E0012000E0002002B08C
:100ABC0070BD0120FBE70120F9E70120F7E700BF3B
:100ACC0000100240000042420F4B5B6803F00C0226
:100ADC00082A01D00D487047C3F383420C49885C47
:100AEC0013F4803F0BD0084B5B68C3F34043094AB7
:100AFC00D35C064A02FB00F0B0FBF3F07047064BE8
:100B0C0003FB00F0704700BF0010024000127A0097
:100B1C00B81D0008B41D000800093D00002800F0B5
:100B2C00A08070B50D460446524B1B6803F00703BA
:100B3C008B420BD24F4A136823F007030B4313600D
:100B4C00136803F007038B4240F08D80236813F089
:100B5C00020F17D013F0040F04D0474A536843F424
:100B6C00E0635360236813F0080F04D0424A5368C3
:100B7C0043F460535360404A536823F0F003A16878
:100B8C000B435360236813F0010F31D06368012BC2
:100B9C0020D0022B25D0384A126812F0020F64D0F4
:100BAC0035494A6822F0030213434B60FFF754FDAA
:100BBC000646314B5B6803F00C036268B3EB820FA3
:100BCC0016D0FFF749FD801B41F288339842F0D9CB
:100BDC00032045E0284A126812F4003FE0D10120BE
:100BEC003EE0254A126812F0007FD9D1012037E08F
:100BFC00204B1B6803F00703AB420AD91D4A13684C
:100C0C0023F007032B431360136803F00703AB4275
:100C1C002DD1236813F0040F06D0174A536823F420
:100C2C00E063E1680B435360236813F0080F07D0AF
:100C3C00114A536823F46053216943EAC10353609A
:100C4C00FFF742FF0C4B5B68C3F303130B4AD35CF7
:100C5C00D8400B4B18600B4B1868FFF7B9FC002001
:100C6C0070BD012070470120FAE70120F8E7012050
:100C7C00F6E700BF0020024000100240D01D000823
:100C8C000800002004000020014B1868704700BFCA
:100C9C000800002008B5FFF7F7FF044B5B68C3F3AF
:100CAC000223034AD35CD84008BD00BF00100240A9
:100CBC00C81D000808B5FFF7E7FF044B5B68C3F3DA
:100CCC00C223034AD35CD84008BD00BF00100240C9
:100CDC00C81D000870B582B00446036813F0010FFC
:100CEC0036D03F4BDB6913F0805F49D13C4BDA695E
:100CFC0042F08052DA61DB6903F080530193019B6F
:100D0C000125384B1B6813F4807F3BD0344B1B6A96
:100D1C0013F4407313D0626802F440729A420ED0FE
:100D2C002F4A136A23F440702F490126C1F84064FE
:100D3C000026C1F84064106213F0010F36D1284A26
:100D4C00136A23F4407361680B431362002D3ED188
:100D5C00236813F0020F06D0214A536823F4404352
:100D6C00A1680B435360236813F0100F34D01C4A56
:100D7C00536823F48003E1680B43536000202CE09C
:100D8C000025BEE7174A136843F480731360FFF71E
:100D9C0063FC0646134B1B6813F4807FB6D1FFF738
:100DAC005BFC801B6428F5D9032016E0FFF754FC8C
:100DBC0006460B4B1B6A13F0020FC0D1FFF74CFC1D
:100DCC00801B41F288339842F3D9032005E0D369A4
:100DDC0023F08053D361BBE7002002B070BD00BF8D
:100DEC0000100240007000400000424270B582B01A
:100DFC000024A44687E07C4DAB4214D00CD8A5F55A
:100E0C008015AB420FD005F57025AB420BD0A5F584
:100E1C008015AB4212D106E0744DAB4203D005F500
:100E2C008035AB420AD18B68002B00F0B580012BCA
:100E3C0000F0AD804261082400E0CC68BEF1FF0FE9
:100E4C0000F2AC8006464FEA8C0233680F259540C1
:100E5C0023EA050304FA02F2134333604B6813F0E0
:100E6C00805F4ED0624B9A6942F001029A619B6995
:100E7C0003F001030193019B4FEA9C02951C5D4B0F
:100E8C0053F825600CF00305AD000F23AB4026EAA8
:100E9C000306594B984200F0888003F58063984212
:100EAC0000F0858003F5806398427CD00323AB402F
:100EBC00334302324F4D45F822304B6813F4801FF8
:100ECC0077D04E4A936843EA0E0393604B6813F451
:100EDC00001F74D0494AD36843EA0E03D3604B68B1
:100EEC0013F4003F71D0454A536843EA0E03536034
:100EFC004B6813F4803F6ED0404A136843EA0E03EC
:100F0C0013600CF1010C0B6833FA0CF269D001225E
:100F1C0002FA0CF203EA020E32EA0303F1D14B6837
:100F2C00122B3FF668AF122B88D801A555F823F089
:100F3C00330E0008470E00088F0F0008A10F0008A1
:100F4C00490E0008490E0008490E0008490E000819
:100F5C00490E0008490E0008490E0008490E000809
:100F6C00490E0008490E0008490E0008490E0008F9
:100F7C00490E0008890F0008950F0008CC6804344E
:100F8C005CE7CC68083459E7CC680C3456E702614E
:100F9C00082453E7002451E704244FE7061DACF165
:100FAC000802920051E7022381E700237FE7012327
:100FBC007DE7124A936823EA0E03936086E70F4A93
:100FCC00D36823EA0E03D36089E70C4A536823EAFB
:100FDC000E0353608CE7094A136823EA0E0313606F
:100FEC008FE702B070BD00BF00002210000031106E
:100FFC0000100240000001400008014000040140C4
:10100C000AB101617047090401617047C36801EAC4
:10101C00030221EA030141EA0241016170470346E0
:10102C0090F82120D2B2022A06D004228263002238
:10103C0080F820200120704701680A6822F00E0217
:10104C000A6001680A6822F001020A60026CC06B37
:10105C00012101FA02F2426083F82110002083F88A
:10106C002000704708B590F82130DBB2022B03D07A
:10107C0004238363012008BD0268136823F00E0368
:10108C0013600268136823F0010313600368194AA4
:10109C00934214D0143293421FD0143293421ED078
:1010AC00143293421ED0143293421ED01432934207
:1010BC0002D04FF0807203E04FF4801200E0012266
:1010CC000D4B5A60012380F82130002380F820302A
:1010DC00436B6BB198470020CDE71022F0E74FF43B
:1010EC008072EDE74FF48052EAE74FF48032E7E785
:1010FC000020C0E70800024000000240002808DB86
:10110C000901C9B200F1604000F5614080F800139C
:10111C00704700F00F000901C9B2014B1954704718
:10112C0014ED00E000B500F00700C0F1070CBCF1B5
:10113C00040F28BF4FF0040C031D062B0FD9C31E40
:10114C004FF0FF3E0EFA0CF021EA000199400EFA26
:10115C0003FE22EA0E0241EA02005DF804FB0023C2
:10116C00EEE70000074AD36823F4E0631B041B0C72
:10117C00000200F4E060034343F0BF6343F4003328
:10118C00D360704700ED00E010B50446054BD868FD
:10119C00C0F30220FFF7C6FF01462046FFF7AEFF63
:1011AC0010BD00BF00ED00E0002807DB00F01F02BF
:1011BC00400901239340024A42F82030704700BF97
:1011CC0000E100E00138B0F1807F0BD24FF0E0235A
:1011DC005861054AF02182F82310002098610722FB
:1011EC001A6170470120704700ED00E07047000065
:1011FC0030B482B00022019290F82420012A00F031
:10120C008F800346012280F824204A68062A2DD8B4
:10121C000468606B02EB8202053A4FF01F0C0CFA6B
:10122C0002FC20EA0C000D6805FA02F2024362632C
:10123C000A68092A38D91C68E06802EB42021E3A97
:10124C004FF0070C0CFA02FC20EA0C008D6805FA32
:10125C0002F20243E2600A68103A012A34D90020F3
:10126C00002283F8242002B030BC70470C2A0DD821
:10127C000568286B02EB8202233A1F24944020EA73
:10128C0004000C68944020432863D1E70568E86AA1
:10129C0002EB8202413A1F24944020EA04000C68BD
:1012AC0094402043E862C3E71C68206902EB4202C9
:1012BC004FF0070C0CFA02FC20EA0C008D6805FAC2
:1012CC0002F202432261C6E71A681648824205D030
:1012DC009A6A42F020029A620120C1E7906810F4E9
:1012EC00000F1BD1906840F4000090600A68102A2F
:1012FC0001D00020B4E70C4A12680C49A1FB021281
:10130C00920C02EB82025200019202E0019A013A25
:10131C000192019A002AF9D10020A1E700209FE751
:10132C000220A0E7002401400800002083DE1B43BC
:10133C0038B503689A6812F0010F01D1002038BD4E
:10134C0004469A6822F001029A60FFF785F9054677
:10135C0023689B6813F0010F13D0FFF77DF9431B33
:10136C00022BF5D923689B6813F0010FF0D0A36A08
:10137C0043F01003A362E36A43F00103E36201202C
:10138C00DDE70020DBE7000000287BD070B50446C9
:10139C00836A002B4DD02046FFF7CAFFA36A13F0D7
:1013AC00100369D1002867D1A26A22F4885222F076
:1013BC00020242F00202A2626268E1690A43217BE6
:1013CC0042EA4102A568B5F5807F02D0012D36D0E6
:1013DC001D46267D012E35D02668716821F46941A1
:1013EC00294371602568AE68274931401143A960D3
:1013FC00A168B1F5807F01D0012902D12369013B9D
:10140C001B052568E96A21F470010B43EB62236824
:10141C0099681E4B0B409A4225D0A36A23F0120305
:10142C0043F01003A362E36A43F00103E36201207B
:10143C0027E0C36280F82430FEF7F6FFABE74FF4E9
:10144C008075C6E731B9A169013945EA413141F4EA
:10145C000065C1E7A16A41F02001A162E16A41F097
:10146C000101E162B8E70023E362A36A23F00303FE
:10147C0043F00103A36204E0A36A43F01003A362E8
:10148C00012070BD01207047FDF7E1FFFE0E1FFF2C
:10149C00002800F0CC8070B5044690F83D30002B4D
:1014AC0077D0242384F83D302268136823F001039D
:1014BC0013602268136843F40043136022681368B6
:1014CC0023F400431360FFF7E5FB62685A4B9A4222
:1014DC0064D85A4B98428CBF00230123002B40F058
:1014EC00A8805749A1FB00318B0C25686A6822F053
:1014FC003F0242EA91426A6021680A6A22F03F0286
:10150C0066684D4DAE424FD8013313430B622168D0
:10151C00CA6922F44F4222F0FF026568464B9D4295
:10152C004CD8431E6D00B3FBF5F3013340F6FC7051
:10153C00034278D0C3F30B031A43CA6121680B68CA
:10154C0023F0C003E269206A024313430B60216855
:10155C008B6823F4034323F0FF032269E068024302
:10156C0013438B602168CB6823F0FF036269A06989
:10157C0002431343CB602268136843F001031360EA
:10158C0000202064202384F83D30206384F83E0042
:10159C0070BD80F83C30FEF777FF82E7294B98420C
:1015AC008CBF0023012399E74FF4967505FB03F3D9
:1015BC00254DA5FB03539B090133A6E7A668BEB9CD
:1015CC00431E05EB450CB3FBFCF30133C3F30B03D8
:1015DC00B3FA83F35B0943BBC6B9431E05EB450560
:1015EC00B3FBF5F30133C3F30B0343F40043A3E75D
:1015FC00431E05EB850C0CEB8C0CB3FBFCF301339D
:10160C00C3F30B03B3FA83F35B09E4E7431E05EB67
:10161C00850505EB8505B3FBF5F30133C3F30B032C
:10162C0043F4404388E7042386E7012384E7012041
:10163C0070470120ACE700BFA08601007F841E002C
:10164C0083DE1B43FF083D00D34D6210026802F19C
:10165C000C0353E8003F23F490730C3242E8003142
:10166C000029F3D1026802F1140353E8003F23F080
:10167C000103143242E800310029F3D1036B012B32
:10168C0005D0202380F842300023036370470268A2
:10169C0002F10C0353E8003F23F010030C3242E834
:1016AC0000310029F3D1ECE790F84130DBB2212B6B
:1016BC0001D0022070478368B3F5805F17D0036AAE
:1016CC005A1C02621A7803685A60C38C9BB2013BA5
:1016DC009BB2C3844BB90268D36823F08003D360F8
:1016EC000268D36843F04003D3600020704703695D
:1016FC00002BE4D1036A1B880268C3F30803536010
:10170C00036A02330362E0E710B50446026813690A
:10171C0023F44053C1680B4313618368026913437C
:10172C0042691A430168CB6823F4B05323F00C03CD
:10173C001343CB600268536923F4407381690B43F4
:10174C0053610268134B9A4220D0FFF7A3FA02466A
:10175C0002EB820202EB820263689B00B2FBF3F2A3
:10176C000D48A0FB02314909642303FB11231B0123
:10177C003233A0FB03035B0903F0F00202EB01120E
:10178C0003F00F03216813448B6010BDFFF792FA2E
:10179C000246DDE7003801401F85EB512DE9F84387
:1017AC0005460F4616469946DDF820802B681C68C6
:1017BC0037EA04040CBF01240024B4422DD1B8F143
:1017CC00FF3FF3D0B8F1000F05D0FEF745FFA0EBBB
:1017DC0009004045EAD92A6802F10C0353E8003F9E
:1017EC0023F4D0730C3242E800310029F3D12A687B
:1017FC0002F1140353E8003F23F00103143242E8D2
:10180C0000310029F3D1202385F8413085F842308E
:10181C00002385F84030032000E00020BDE8F88369
:10182C0060B310B5044690F8413013B3242384F808
:10183C0041302268D36823F40053D3602046FFF76D
:10184C0063FF2268136923F4904313612268536980
:10185C0023F02A0353612268D36843F40053D36006
:10186C0000206064202384F8413084F842306063A7
:10187C0010BD80F84030FEF739FED7E701207047E5
:10188C002DE9F04182B01E4690F84130DBB2202B9E
:10189C004BD104460D46904600294AD00AB9012086
:1018AC0044E000234364212380F84130FEF7D4FE4A
:1018BC000746A4F82480A4F82680A368B3F5805FBB
:1018CC0002D04FF000080FE02369FBB14FF0000885
:1018DC000AE038F8023B2268C3F308035360E28C39
:1018EC0092B2013A92B2E284E38C9BB28BB1009635
:1018FC003B46002280212046FFF750FFD8B9002D2F
:10190C00E7D015F8012B23685A60E8E7A8460025B4
:10191C00EAE700963B46002240212046FFF73EFFB7
:10192C0058B9202384F8413000E0022002B0BDE811
:10193C00F0810120FAE70320F8E70320F6E770476F
:10194C0008B50168CA6822F04002CA60202280F8FB
:10195C004120FFF7F4FF002008BD7047704708B521
:10196C00406A0023C385C384FFF7F8FF08BD7047A6
:10197C0090F84230DBB2222B69D18368B3F5805FDB
:10198C004FD0826AB3F5805F04D0002B56D1036927
:10199C00002B53D103685B681370836A0133836235
:1019AC00C38D9BB2013B9BB2C385002B51D100B5BB
:1019BC0083B00268D36823F02003D3600268D36835
:1019CC0023F48073D3600268536923F001035361DD
:1019DC00202380F8423000234363036B012B33D167
:1019EC0000230363026802F10C0353E8003F23F069
:1019FC0010030C3242E800310029F3D103681A6855
:101A0C0012F0100F06D0002201921A6801925B6846
:101A1C000193019B818DFFF7AAFF002003B05DF8B5
:101A2C0004FB0269002AACD1826A03685B68C3F3C9
:101A3C0008031380836A02338362B1E703685B682F
:101A4C0003F07F031370A8E7FFF787FFE5E7022099
:101A5C00704700207047000010B582B00446026841
:101A6C001368D068516913F00F0F09D113F0200FD0
:101A7C000CD010F0200F09D02046FFF779FF16E0AC
:101A8C0011F0010115D110F4907F12D1216B0129B5
:101A9C0079D013F0800F03D010F0800F40F0138139
:101AAC0013F0400F03D010F0400F40F0108102B043
:101ABC0010BD13F0010F06D010F4807F03D0626CC0
:101ACC0042F00102626413F0040F04D019B1626C8D
:101ADC0042F00202626413F0020F04D019B1626C7E
:101AEC0042F00402626413F0080F07D010F0200FCC
:101AFC0000D119B1626C42F008026264626C002A77
:101B0C00D5D013F0200F02D010F0200F29D123686C
:101B1C005B6903F04003626C12F0080F00D163B3F1
:101B2C002046FFF793FD23685B6913F0400F20D02C
:101B3C00226802F1140353E8003F23F040031432EF
:101B4C0042E800310029F3D1E36B73B1624A5A6366
:101B5C00E06BFFF787FA0028A9D0E06B436B98473E
:101B6C00A5E72046FFF704FFD1E72046FFF7F6FE76
:101B7C009DE72046FFF7F2FE99E72046FFF7EEFEC1
:101B8C000023636493E713F0100F82D010F0100F52
:101B9C003FF47FAF002301931368019353680193C3
:101BAC00019B536913F0400F51D0E26B13685B68D3
:101BBC009BB2002B3FF47BAFA18D99427FF677AFA0
:101BCC00E3859369202B37D0226802F10C0353E88C
:101BDC00003F23F480730C3242E800310029F3D12A
:101BEC00226802F1140353E8003F23F0010314327E
:101BFC0042E800310029F3D1226802F1140353E8C2
:101C0C00003F23F04003143242E800310029F3D1A5
:101C1C00202384F8423000232363226802F10C0352
:101C2C0053E8003F23F010030C3242E80031002946
:101C3C00F3D1E06BFFF7F3F902236363A18DE38D1E
:101C4C009BB2C91A89B22046FFF791FE2FE7A18DEE
:101C5C00E38D9BB2C91A89B2E38D9BB2002B3FF482
:101C6C0026AF00293FF423AF226802F10C0353E89E
:101C7C00003F23F490730C3242E800300028F3D17B
:101C8C00226802F1140353E8003F23F001031432DD
:101C9C0042E800300028F3D1202384F8423000239E
:101CAC002363226802F10C0353E8003F23F0100376
:101CBC000C3242E800300028F3D102236363204643
:101CCC00FFF755FEF3E62046FFF7EEFCEFE6204665
:101CDC00FFF736FEEBE600BF6B190008FFF786FA3C
:101CEC000B480C490C4A002302E0D458C45004336E
:101CFC00C4188C42F9D3094A094C002301E0136043
:101D0C000432A242FBD300F017F8FEF725FB704714
:101D1C00000000200C000020F01D00080C0000202A
:101D2C0040010020FEE703460244934200D1704775
:101D3C0003F8011BF9E7000070B500260C4D0D4CA3
:101D4C00641BA410A64209D100F01AF800260A4D13
:101D5C000A4C641BA410A64205D170BD55F8043B77
:101D6C0098470136EEE755F8043B98470136F2E701
:101D7C00E81D0008E81D0008E81D0008EC1D00081F
:101D8C00F8B500BFF8BC08BC9E467047F8B500BF5C
:081D9C00F8BC08BC9E4670472C
:101DA40048656C6C6F20576F726C64210A000000E8
:101DB4000102000002030405060708090A0B0C0DC2
:101DC4000E0F1010000000000102030400000000C8
:0C1DD400000000000102030406070809DB
:081DE0002CE3FF7F010000006D
:041DE80041010008AD
:041DEC001D010008CD
:0C1DF00001000000100000000024F400BE
:0400000508001CE9EA
:00000001FF
